:0400000088EF02F093
:100018004880D8CF11F0E8CF12F0E0CF13F0E1CF4D
:1000280014F0E2CF15F0D9CF16F0DACF17F0D59E3D
:10003800F294F28C0001934B942B94BF2BEF00F0B9
:10004800040E945DD8A02BEF00F02DEF00F031EFF7
:1000580000F0000E946F000E936F01017D4B7E2B14
:10006800E90E7D5D030E7E59D8A03DEF00F03FEF0D
:1000780000F049EF00F0000E7E6F000E7D6F010E5C
:100088005027000E5123522353235051005D5151E4
:1000980001595251025953510359D8B056EF00F043
:1000A80058EF00F068EF00F0010E0001D76F010E65
:1000B800AB6F000ED66F000E0101506F000E516F2E
:1000C800000E526F000E536F5B4B5C2B610E5B5D35
:1000D800EA0E5C59D8A073EF00F075EF00F08EEFD0
:1000E80000F0000E5C6F000E5B6F594B5A2B5A5193
:1000F80009E1290E595DD8A084EF00F086EF00F0E1
:100108008EEF00F0000E5A6F000E596F000E586FF8
:10011800010E576F87C001F088C002F089C003F054
:100128008AC004F0100E056E0E0E066E000E076EE5
:10013800000E086EEFEC2DF001C00DF002C00EF0BD
:1001480003C00FF004C010F083C001F084C002F0B7
:1001580085C003F086C004F03C0E056E000E066EE6
:10016800000E076E000E086EEFEC2DF001500D2406
:1001780000016F6F02500E20706F03500F20716FD7
:1001880004501020726F6F517B190DE170517C196A
:100198000AE171517D1907E172517E19D8A4D7EF90
:1001A80000F0D9EF00F0E9EF00F0AE51D8A4DFEF8E
:1001B80000F0E1EF00F0E9EF00F0010ED16F000E62
:1001C8009E6F010E9D6F010EAD6F0101872BB6C0AA
:1001D80038F0396A8268D59EF294F28C18EF02F0F2
:1001E80080908092809C809E0001AB05D8A4FFEF90
:1001F80000F001EF01F010EF01F0600E3824D96E25
:10020800000E3920DA6E600E3824E16E000E3920B7
:10021800E26EE750F70BDF6E600E3824D96E000EE1
:100228003920DA6EDF50826E66EF02F080808092AD
:10023800809C809E0001AB05D8A425EF01F027EF34
:1002480001F010EF01F001EF01F080908082809CB6
:10025800809E10EF01F080808082809C809E10EF4D
:1002680001F080908092808C809E10EF01F0808059
:100278008092808C809E10EF01F080908082808C2C
:10028800809E10EF01F080808082808C809E10EF2D
:1002980001F080908092809C808E10EF01F0808029
:1002A8008092809C808E10EF01F00001E605D8B4A2
:1002B80060EF01F062EF01F076EF01F0B305D8A42A
:1002C80068EF01F06AEF01F07CEF01F094BF76EF80
:1002D80001F0020E945DD8B074EF01F076EF01F0F2
:1002E8007CEF01F080908082809C808E66EF02F027
:1002F80080808082808C808E66EF02F00001B505D8
:10030800D8B489EF01F08BEF01F09FEF01F0B2054F
:10031800D8A491EF01F093EF01F0A5EF01F094BF9D
:100328009FEF01F0020E945DD8B09DEF01F09FEFB2
:1003380001F0A5EF01F080808082809C808E66EFBE
:1003480002F080808082808C808E66EF02F000014F
:10035800B405D8B4B2EF01F0B4EF01F0C8EF01F082
:10036800B105D8A4BAEF01F0BCEF01F0CEEF01F06F
:1003780094BFC8EF01F0020E945DD8B0C6EF01F04B
:10038800C8EF01F0CEEF01F080908092808C808ED3
:1003980066EF02F080808082808C808E66EF02F0AB
:1003A8000001E705D8B4DBEF01F0DDEF01F0F1EF74
:1003B80001F0D605D8A4E3EF01F0E5EF01F0F7EF7F
:1003C80001F094BFF1EF01F0020E945DD8B0EFEFA9
:1003D80001F0F1EF01F0F7EF01F080808092808C5E
:1003E800808E66EF02F080808082808C808E66EF3F
:1003F80002F00001B005D8A404EF02F006EF02F005
:100408000CEF02F080908082808C808E66EF02F084
:1004180080808082808C808E66EF02F0808080826F
:10042800808C808E66EF02F038C00DF039C00EF077
:100438000E50000AD8B423EF02F066EF02F00D5018
:10044800000AD8B4F4EF00F0010AD8B41AEF01F0AA
:10045800030AD8B429EF01F0010AD8B42FEF01F04C
:10046800070AD8B435EF01F0010AD8B43BEF01F020
:10047800030AD8B441EF01F0010AD8B447EF01F0FC
:100488000F0AD8B44DEF01F0010AD8B453EF01F0C8
:10049800030AD8B459EF01F0010AD8B482EF01F089
:1004A800070AD8B4ABEF01F0010AD8B4D4EF01F0D1
:1004B800030AD8B4FDEF01F0010AD8B412EF02F034
:1004C80066EF02F00001B62B0E0EB6656EEF02F075
:1004D80070EF02F072EF02F0000EB66F000ED76EEA
:1004E800060ED66ED58EF28C17C0DAFF16C0D9FF6D
:1004F80015C0E2FF14C0E1FF13C0E0FF12C0E8FF1F
:1005080011C0D8FF489010008BEF2FF0140E000197
:10051800C86591EF02F093EF02F017EF10F0000EAC
:10052800C86F17EF10F0462A0C0E46649EEF02F0D3
:10053800A0EF02F0A2EF02F0070E466E46C018F0D8
:10054800000E81EC2EF0060EE82EFED700D0ACC0CF
:1005580018F0000E04EC30F00001AC6FAC514618F6
:10056800D8A4B9EF02F0BBEF02F0A2EF02F0000E40
:10057800AC6F000E3C6E58EF10F046060D0E46604C
:10058800C8EF02F0CAEF02F0D2EF02F0070E4660A1
:10059800D0EF02F0D2EF02F0D4EF02F00C0E466E6C
:1005A80046C018F0000E81EC2EF0060EE82EFED79D
:1005B80000D0ACC018F0000E04EC30F00001AC6FB5
:1005C800AC514618D8A4EBEF02F0EDEF02F0D4EFEF
:1005D80002F0BBEF02F0010E8B27000E8C238D2357
:1005E8008E238E518D118C1109E13D0E8B5DD8A0A3
:1005F80000EF03F002EF03F00AEF03F0010E8B6F38
:10060800000E8C6F000E8D6F000E8E6F8BC018F071
:10061800010E81EC2EF0060EE82EFED700D0ACC0FD
:1006280018F0010E04EC30F00001AC6FACC0EDF036
:10063800EE6BEF6BF06B8B51ED190DE18C51EE19F0
:100648000AE18D51EF1907E18E51F019D8A42FEF67
:1006580003F031EF03F00AEF03F0BBEF02F08B0772
:10066800000E8C5B8D5B8E5B8E518D118C1107E1BA
:100678003D0E8B5DD8B043EF03F045EF03F050EF2C
:1006880003F08B518C118D118E11D8A44EEF03F00D
:1006980050EF03F058EF03F03C0E8B6F000E8C6F99
:1006A800000E8D6F000E8E6F8BC018F0010E81EC5E
:1006B8002EF0060EE82EFED700D0ACC018F0010EC2
:1006C80004EC30F00001AC6FACC0EDF0EE6BEF6BFA
:1006D800F06B8B51ED190DE18C51EE190AE18D513A
:1006E800EF1907E18E51F019D8A47DEF03F07FEFE1
:1006F80003F058EF03F0BBEF02F04450D8B487EF93
:1007080003F089EF03F05BEF04F01F0E44608FEFF6
:1007180003F091EF03F05BEF04F04550D8B497EF86
:1007280003F099EF03F0A9EF03F04504D8A49FEF75
:1007380003F0A1EF03F05BEF04F0D151D8A4A7EFC9
:1007480003F0A9EF03F05BEF04F04450040D000E32
:10075800F324D96E020EF420DA6EDE6ADE6ADE6AEF
:10076800DD6A000E186E4450040DF350640F81ECDE
:100778002EF0000E186E4450040DF350650F81ECF6
:100788002EF0000E186E4450040DF350660F81ECE5
:100798002EF0000E186E4450040DF350670F81ECD4
:1007A8002EF0060EE82EFED700D030C018F04450C8
:1007B800040DF350640F04EC30F00001ED6FED51BF
:1007C800306E316A326A336A30C018F04450040D12
:1007D800F350650F04EC30F00001ED6FED5130C0BF
:1007E800EFF031C0F0F032C0F1F0EE6BEE25306E74
:1007F800000EEF21316E000EF021326E000EF12155
:10080800336E30C018F04450040DF350660F04ECFA
:1008180030F00001ED6FED5130C0EFF031C0F0F075
:1008280032C0F1F0EE6BEE25306E000EEF21316E26
:10083800000EF021326E000EF121336E30C018F038
:100848004450040DF350670F04EC30F00001ED6FD5
:10085800ED5130C0EFF031C0F0F032C0F1F0EE6B86
:10086800EE25306E000EEF21316E000EF021326E53
:10087800000EF121336E4450040D000EF324D96E9E
:10088800020EF420DA6E3050DE180DE13150DE1819
:100898000AE13250DE1807E13350DE18D8A457EFCA
:1008A80004F059EF04F0B5EF03F06DEF04F0445095
:1008B800D8A461EF04F063EF04F06DEF04F0450491
:1008C800D8A469EF04F06BEF04F06DEF04F0010EAB
:1008D800AF6F000E3C6E58EF10F088EC27F0070E53
:1008E8000101626FD00E616F6DEF04F045C018F022
:1008F800020E04EC30F0456E4550D8B486EF04F093
:1009080088EF04F08FEF04F0000E456E000E000132
:10091800E66F94EF04F0010E456E010E0001E66FDC
:1009280045C018F0020E81EC2EF06DEF04F00A0EAF
:10093800C86F000E3C6E58EF10F0442A1E0E446437
:10094800A8EF04F0AAEF04F06DEF04F0000E446E77
:100958006DEF04F04450D8A4B4EF04F0B6EF04F0FF
:10096800AAEF04F0010EB96F1E0EB965BEEF04F0D0
:10097800C0EF04F0C2EF04F06DEF04F0B951040DBC
:10098800000EF324D96E020EF420DA6EDE6ADE6AF7
:10099800DE6ADD6A000E186EB951040DF350640F5B
:1009A80081EC2EF0000E186E0001B951040DF350C1
:1009B800650F81EC2EF0000E186E0001B951040D80
:1009C800F350660F81EC2EF0000E186E0001B9513D
:1009D800040DF350670F81EC2EF0060EE82EFED7BB
:1009E80000D030C018F00001B951040DF350640F65
:1009F80004EC30F00001ED6FED51306E316A326A6F
:100A0800336A30C018F0B951040DF350650F04EC87
:100A180030F00001ED6FED5130C0EFF031C0F0F073
:100A280032C0F1F0EE6BEE25306E000EEF21316E24
:100A3800000EF021326E000EF121336E30C018F036
:100A4800B951040DF350660F04EC30F00001ED6F5E
:100A5800ED5130C0EFF031C0F0F032C0F1F0EE6B84
:100A6800EE25306E000EEF21316E000EF021326E51
:100A7800000EF121336E30C018F0B951040DF35057
:100A8800670F04EC30F00001ED6FED5130C0EFF06E
:100A980031C0F0F032C0F1F0EE6BEE25306E000E92
:100AA800EF21316E000EF021326E000EF121336E0F
:100AB800B951040D000EF324D96E020EF420DA6E3B
:100AC8003050DE180DE13150DE180AE13250DE18E0
:100AD80007E13350DE18D8A474EF05F076EF05F07F
:100AE800CEEF04F0B92BB8EF04F03C50ED6FEE6B8D
:100AF800EE51000AD8B483EF05F058EF10F0ED512D
:100B0800010AD8B497EF02F0030AD8B4C1EF02F093
:100B1800010AD8B4EFEF02F0070AD8B433EF03F0B4
:100B2800010AD8B481EF03F0030AD8B47AEF04F0CD
:100B3800010AD8B4A1EF04F00F0AD8B471EF04F099
:100B4800010AD8B49BEF04F0030AD8B4AEEF04F05E
:100B580058EF10F0020EC86F000E3C6E58EF10F000
:100B6800040EC86F000E3C6E58EF10F00B0EC86FE5
:100B7800000EBAEC22F00001DD390F0B030B426EB8
:100B8800DD510F0B416EDB390F0B0F0B406EDB5144
:100B98000F0BCE6F6DEF04F0000EC86F000E3C6EA9
:100BA80058EF10F03C50ED6FEE6BEE51000AD8B4E0
:100BB800E0EF05F058EF10F0ED51010AD8B4AEEFB0
:100BC80005F0030AD8B4B4EF05F0010AD8B46DEF04
:100BD80004F0070AD8B46DEF04F0010AD8B46DEF39
:100BE80004F0030AD8B4BAEF05F0010AD8B46DEFDF
:100BF80004F00F0AD8B46DEF04F0010AD8B46DEF11
:100C080004F0030AD8B4D0EF05F058EF10F04350C1
:100C1800D8A411EF06F013EF06F01EEF06F0422AF3
:100C2800020E42641AEF06F01CEF06F01EEF06F003
:100C3800000E426E4304D8A424EF06F026EF06F017
:100C480045EF06F0412A010E42642DEF06F02FEF22
:100C580006F03BEF06F0030E416435EF06F037EF80
:100C680006F045EF06F0000E416E45EF06F0090E5E
:100C7800416441EF06F043EF06F045EF06F037EF29
:100C880006F0020E4318D8A44CEF06F04EEF06F01B
:100C980059EF06F0402A050E406455EF06F057EF6D
:100CA80006F059EF06F0000E406E030E4318D8A464
:100CB80060EF06F062EF06F06DEF04F0CE2B090E40
:100CC800CE6569EF06F06BEF06F06DEF04F0000EED
:100CD800CE6F6DEF04F04350D8A475EF06F077EFB0
:100CE80006F082EF06F04206020E42647EEF06F03E
:100CF80080EF06F082EF06F0020E426E4304D8A49D
:100D080088EF06F08AEF06F0A9EF06F04106010E1B
:100D1800426491EF06F093EF06F09FEF06F0030EA2
:100D2800416499EF06F09BEF06F0A9EF06F0030E79
:100D3800416EA9EF06F0090E4164A5EF06F0A7EF92
:100D480006F0A9EF06F0090E416E020E4318D8A46A
:100D5800B0EF06F0B2EF06F0BDEF06F04006050E64
:100D68004064B9EF06F0BBEF06F0BDEF06F0050EE4
:100D7800406E030E4318D8A4C4EF06F0C6EF06F081
:100D88006DEF04F0CE07090ECE65CDEF06F0CFEF7C
:100D980006F06DEF04F0090ECE6F6DEF04F0432AF4
:100DA800030E4364DAEF06F0DCEF06F06DEF04F0B3
:100DB800000E436E6DEF04F04306030E4364E7EF45
:100DC80006F0E9EF06F06DEF04F0030E436E6DEFE9
:100DD80004F04238F00BDE6FDE514124DE6F4038FC
:100DE800F00BDC6FDC51CE25DC6F010EBAEC22F083
:100DF800050E0001C86F6DEF04F0010EC86F6DEFAE
:100E080004F03C50ED6FEE6BEE51000AD8B40FEFD2
:100E180007F06DEF04F0ED51010AD8B40BEF06F0BE
:100E2800030AD8B46FEF06F0010AD8B4D3EF06F07E
:100E3800070AD8B4E0EF06F0020AD8B4EDEF06F0DE
:100E48000C0AD8B401EF07F06DEF04F0030EC86F79
:100E5800000E3C6E6DEF04F0010EC86F000E3C6E84
:100E68006DEF04F00C0EC86F73C018F0060E04EC9A
:100E780030F00001ED6FED51736F746B756B766B2D
:100E880073C018F0050E04EC30F00001ED6FED5161
:100E980073C0EFF074C0F0F075C0F1F0EE6BEE25A2
:100EA800736F000EEF21746F000EF021756F000E46
:100EB800F121766F73C018F0040E04EC30F00001D5
:100EC800ED6FED5173C0EFF074C0F0F075C0F1F044
:100ED800EE6BEE25736F000EEF21746F000EF0219C
:100EE800756F000EF121766F73C018F0030E04ECD5
:100EF80030F00001ED6FED5173C0EFF074C0F0F009
:100F080075C0F1F0EE6BEE25736F000EEF21746F74
:100F1800000EF021756F000EF121766F7351736F1B
:100F2800746B756B766B73C024F074C025F075C054
:100F380026F076C027F00A0E286E000E296E000EE5
:100F48002A6E000E2B6EE9EC2CF02450426E73C012
:100F580018F074C019F075C01AF076C01BF00A0EAC
:100F68001C6E000E1D6E000E1E6E000E1F6E3CECF9
:100F78002DF01850416E77C018F00A0E04EC30F0CE
:100F88000001ED6FED51776F786B796B7A6B77C0F5
:100F980018F0090E04EC30F00001ED6FED5177C048
:100FA800EFF078C0F0F079C0F1F0EE6BEE25776FD6
:100FB800000EEF21786F000EF021796F000EF121FD
:100FC8007A6F77C018F0080E04EC30F00001ED6F6E
:100FD800ED5177C0EFF078C0F0F079C0F1F0EE6B2A
:100FE800EE25776F000EEF21786F000EF021796FF4
:100FF800000EF1217A6F77C018F0070E04EC30F07C
:101008000001ED6FED5177C0EFF078C0F0F079C0D6
:10101800F1F0EE6BEE25776F000EEF21786F000E82
:10102800F021796F000EF1217A6F7751776F786B25
:10103800796B7A6B77C024F078C025F079C026F0F8
:101048007AC027F00A0E286E000E296E000E2A6E4E
:10105800000E2B6EE9EC2CF02450406E77C018F08F
:1010680078C019F079C01AF07AC01BF00A0E1C6E0D
:10107800000E1D6E000E1E6E000E1F6E3CEC2DF055
:1010880018500001CE6F000E3C6E6DEF04F0000E9C
:10109800C86F000E3C6E6DEF04F03C50ED6FEE6BC8
:1010A800EE51000AD8B45BEF08F06DEF04F0ED5193
:1010B800010AD8B42AEF07F0030AD8B430EF07F0D2
:1010C800040AD8B436EF07F00C0AD8B44BEF08F08E
:1010D8006DEF04F04350D8A474EF08F076EF08F0F1
:1010E80081EF08F0422A020E42647DEF08F07FEF9C
:1010F80008F081EF08F0000E426E4304D8A487EF91
:1011080008F089EF08F0A8EF08F0412A010E4264C0
:1011180090EF08F092EF08F09EEF08F0030E41649C
:1011280098EF08F09AEF08F0A8EF08F0000E416E6B
:10113800A8EF08F0090E4164A4EF08F0A6EF08F044
:10114800A8EF08F09AEF08F0020E4318D8A4AFEF02
:1011580008F0B1EF08F0BCEF08F0402A050E406433
:10116800B8EF08F0BAEF08F0BCEF08F0000E406ED8
:10117800030E4318D8A4C3EF08F0C5EF08F0D0EF6A
:1011880008F0CE2B090ECE65CCEF08F0CEEF08F0B4
:10119800D0EF08F0000ECE6F000E3C6E6DEF04F03D
:1011A8004350D8A4DAEF08F0DCEF08F0E7EF08F0D6
:1011B8004206020E4264E3EF08F0E5EF08F0E7EFBD
:1011C80008F0020E426E4304D8A4EDEF08F0EFEFEA
:1011D80008F00EEF09F04106010E4264F6EF08F040
:1011E800F8EF08F004EF09F0030E4164FEEF08F091
:1011F80000EF09F00EEF09F0030E416E0EEF09F053
:10120800090E41640AEF09F00CEF09F00EEF09F03E
:10121800090E416E020E4318D8A415EF09F017EF16
:1012280009F022EF09F04006050E40641EEF09F0B0
:1012380020EF09F022EF09F0050E406E030E431867
:10124800D8A429EF09F02BEF09F0D0EF08F0CE076A
:10125800090ECE6532EF09F034EF09F0D0EF08F04F
:10126800090ECE6FD0EF08F0432A030E43643FEF18
:1012780009F041EF09F0D0EF08F0000E436ED0EF0F
:1012880008F04306030E43644CEF09F04EEF09F0F3
:10129800D0EF08F0030E436ED0EF08F042500A0D6D
:1012A800F3CFEDF0F4CFEEF04150ED27000EEE2332
:1012B800EDC073F0EEC074F0000E74BFFF0E756FD2
:1012C800766F40500A0DF3CFEDF0F4CFEEF0CE512B
:1012D800ED27000EEE23EDC077F0EEC078F0000E9B
:1012E80078BFFF0E796F7A6F73C048F174C049F107
:1012F80075C04AF176C04BF1000E0001D26F030EA3
:10130800D26589EF09F08BEF09F08DEF09F0AEEFA8
:1013180009F048C118F0D251030F81EC2EF048C1F2
:10132800EDF049C1EEF04AC1EFF04BC1F0F0EEC06C
:10133800EDF0EFC0EEF0F0C0EFF00001F06BEDC0A3
:1013480048F1EEC049F1EFC04AF1F0C04BF1D22BA1
:1013580083EF09F02CC018F0060E04EC30F0000101
:10136800ED6FED512C6E2D6A2E6A2F6A2CC018F085
:10137800050E04EC30F00001ED6FED512CC0EFF0DC
:101388002DC0F0F02EC0F1F0EE6BEE252C6E000EA5
:10139800EF212D6E000EF0212E6E000EF1212F6E22
:1013A8002CC018F0040E04EC30F00001ED6FED5184
:1013B8002CC0EFF02DC0F0F02EC0F1F0EE6BEE2552
:1013C8002C6E000EEF212D6E000EF0212E6E000EF9
:1013D800F1212F6E2CC018F0030E04EC30F0000140
:1013E800ED6FED512CC0EFF02DC0F0F02EC0F1F0F4
:1013F800EE6BEE252C6E000EEF212D6E000EF02107
:101408002E6E000EF1212F6E73C048F174C049F1A1
:1014180075C04AF176C04BF1010148512C180DE115
:1014280049512D180AE14A512E1807E14B512F183E
:10143800D8A421EF0AF023EF0AF080EF09F077C073
:1014480044F178C045F179C046F17AC047F1000E01
:101458000001D26F030ED26534EF0AF036EF0AF0BE
:1014680038EF0AF059EF0AF044C118F0D251070FCB
:1014780081EC2EF044C1EDF045C1EEF046C1EFF02D
:1014880047C1F0F0EEC0EDF0EFC0EEF0F0C0EFF0C5
:101498000001F06BEDC044F1EEC045F1EFC046F13C
:1014A800F0C047F1D22B2EEF0AF02CC018F00A0E2C
:1014B80004EC30F00001ED6FED512C6E2D6A2E6AB0
:1014C8002F6A2CC018F0090E04EC30F00001ED6F03
:1014D800ED512CC0EFF02DC0F0F02EC0F1F0EE6B06
:1014E800EE252C6E000EEF212D6E000EF0212E6ED3
:1014F800000EF1212F6E2CC018F0080E04EC30F00D
:101508000001ED6FED512CC0EFF02DC0F0F02EC0B2
:10151800F1F0EE6BEE252C6E000EEF212D6E000E15
:10152800F0212E6E000EF1212F6E2CC018F0070E40
:1015380004EC30F00001ED6FED512CC0EFF02DC040
:10154800F0F02EC0F1F0EE6BEE252C6E000EEF21C0
:101558002D6E000EF0212E6E000EF1212F6E77C039
:1015680044F178C045F179C046F17AC047F10101EC
:1015780044512C180DE145512D180AE146512E18F9
:1015880007E147512F18D8A4CCEF0AF0CEEF0AF0A4
:101598002BEF0AF073C087F074C088F075C089F02B
:1015A80076C08AF077C083F078C084F079C085F07F
:1015B8007AC086F0050E0001C86F000E3C6E6DEF14
:1015C80004F0020EC86F000E3C6E6DEF04F03C5044
:1015D800ED6FEE6BEE51000AD8B4F5EF0AF06DEF3F
:1015E80004F0ED51010AD8B46EEF08F0030AD8B43C
:1015F800D4EF08F0010AD8B438EF09F0070AD8B4D4
:1016080045EF09F0020AD8B452EF09F00C0AD8B431
:10161800E5EF0AF06DEF04F0060EC86F000E3C6EA1
:101628006DEF04F00D0EC86FE5C018F00B0E04EC5A
:1016380030F00001E56FE5C0CDF0A9C018F00D0E3F
:1016480004EC30F00001ED6FED51A96FAA6BA9C051
:1016580018F00C0E04EC30F00001ED6FA951EE6F9C
:10166800ED51A96FEEC0AAF0A9C01DF0AAC01EF0E6
:10167800030E206EE80E1F6E80EC2DF01D50426E9A
:10168800030E1B6EE80E1A6EA9C018F0AAC019F056
:1016980024EC2EF018C01DF019C01EF0000E206EAC
:1016A800640E1F6E80EC2DF01D50416E000E1B6EF7
:1016B800640E1A6EA9C018F0AAC019F024EC2EF016
:1016C80018C01DF019C01EF0000E206E0A0E1F6E05
:1016D80080EC2DF01D50406EA9C018F0AAC019F07A
:1016E800000E1B6E0A0E1A6E24EC2EF01850000124
:1016F800CE6FD0EF08F03C50ED6FEE6BEE51000A64
:10170800D8B489EF0BF06DEF04F0ED51010AD8B4AD
:1017180010EF0BF0030AD8B4E5EF0AF0010AD8B4C9
:10172800D0EF08F0070AD8B4D0EF08F0010AD8B40F
:10173800D0EF08F0030AD8B416EF0BF0010AD8B4BA
:10174800D0EF08F00F0AD8B4D0EF08F0010AD8B4E7
:10175800D0EF08F0030AD8B44BEF08F06DEF04F0AF
:10176800CD51050FCD6F5F0ECD65BDEF0BF0BFEF0F
:101778000BF06DEF04F0050ECD6F6DEF04F0CD5159
:10178800FB0FCD6F600ECD61CCEF0BF0CEEF0BF001
:10179800D6EF0BF0050ECD61D4EF0BF0D6EF0BF0C2
:1017A8006DEF04F05F0ECD6F6DEF04F04350D8A4D9
:1017B800E0EF0BF0E2EF0BF0EDEF0BF0422A090E31
:1017C8004264E9EF0BF0EBEF0BF0EDEF0BF0000EDE
:1017D800426E4304D8A4F3EF0BF0F5EF0BF000EFE3
:1017E8000CF0412A090E4164FCEF0BF0FEEF0BF000
:1017F80000EF0CF0000E416E020E4318D8A407EF5C
:101808000CF009EF0CF014EF0CF0402A090E4064BC
:1018180010EF0CF012EF0CF014EF0CF0000E406E0D
:10182800030E4318D8A41BEF0CF01DEF0CF06DEF5E
:1018380004F0CE2B090ECE6524EF0CF026EF0CF049
:101848006DEF04F06BEF06F0432A030E43642FEFAD
:101858000CF031EF0CF06DEF04F0DCEF06F042C055
:1018680018F0196A030E1B6EE80E1A6E79EC30F048
:1018780040500A0DF3CFEDF0F4CFEEF04150640D77
:10188800F3CFEFF0F4CFF0F00001ED51EF25F16F59
:10189800EE51F021F26F1850F125F36F1950F22133
:1018A800F46FCE51F3250101756F0001000EF4218C
:1018B8000101766F75C118F076C119F02EEC2AF087
:1018C8006DEF04F042C018F0196A030E1B6EE80EA3
:1018D8001A6E79EC30F040500A0DF3CFEDF0F4CFEA
:1018E800EEF04150640DF3CFEFF0F4CFF0F00001CB
:1018F800ED51EF25F16FEE51F021F26F1850F125FF
:10190800F36F1950F221F46FCE51F325A96F000E31
:10191800F421AA6FCDC0E5F0E5C018F00B0E81ECFC
:101928002EF0060EE82EFED700D0ACC018F00B0E35
:1019380004EC30F00001AC6FE551AC19D8A4A7EF66
:101948000CF0A9EF0CF090EF0CF0A9C09BF0AAC026
:101958009CF09BC018F00C0E81EC2EF000019C51FD
:101968009B6F9C6B9BC018F00D0E81EC2EF0060E41
:10197800E82EFED700D08FC018F00D0E04EC30F022
:101988000001ED6FED518F6F906B8FC018F00C0E4A
:1019980004EC30F00001ED6F8F51EE6FED518F6F59
:1019A800EEC090F0A9C09BF0AAC09CF08F519B1983
:1019B80007E190519C19D8A4E4EF0CF0E6EF0CF085
:1019C800ADEF0CF0A9C01DF0AAC01EF0000E206EED
:1019D800190E1F6E80EC2DF01DC004F11EC005F11C
:1019E8000101066B076B000E3C6E050E0001C86F07
:1019F80058EF10F0000E3C6E030EC86F000E3C6EE0
:101A080058EF10F03C50ED6FEE6BEE51000AD8B471
:101A180010EF0DF058EF10F0ED51010AD8B4B4EF03
:101A28000BF0030AD8B4C3EF0BF0010AD8B4DAEF0D
:101A38000BF0070AD8B428EF0CF0010AD8B433EF3A
:101A48000CF0030AD8B466EF0CF0010AD8B46DEFB5
:101A580004F00F0AD8B46DEF04F0010AD8B46DEFA2
:101A680004F0030AD8B4FEEF0CF058EF10F0040E9F
:101A7800C86F000E3C6E6DEF04F0100EC86F000EBC
:101A88003C6E6DEF04F03C50ED6FEE6BEE51000ACA
:101A9800D8B451EF0DF06DEF04F0ED51010AD8B450
:101AA8003BEF0DF0030AD8B42AEF07F0010AD8B4C7
:101AB800D0EF08F0070AD8B4D0EF08F0010AD8B47C
:101AC800D0EF08F0030AD8B441EF0DF0010AD8B4FA
:101AD800D0EF08F00F0AD8B4D0EF08F0010AD8B454
:101AE800D0EF08F0030AD8B44BEF08F06DEF04F01C
:101AF800060EC86F000ECF6F000E3C6E6DEF04F03F
:101B08000E0EC86F000E3C6E6DEF04F03C50ED6F8A
:101B1800EE6BEE51000AD8B494EF0DF06DEF04F0BF
:101B2800ED51010AD8B430EF07F0030AD8B47CEFBE
:101B38000DF0010AD8B4D0EF08F0070AD8B4D0EFF6
:101B480008F0010AD8B4D0EF08F0030AD8B484EF3B
:101B58000DF0010AD8B4D0EF08F00F0AD8B4D0EFCE
:101B680008F0010AD8B4D0EF08F0030AD8B44BEF54
:101B780008F06DEF04F0CF51D8A4C5EF0DF0C7EF12
:101B88000DF0CBEF0DF0010ECF6F6DEF04F0000EEE
:101B9800CF6F6DEF04F0CF51D8A4D5EF0DF0D7EF8C
:101BA8000DF0CBEF0DF0C7EF0DF0CF05D8A4DFEFA8
:101BB8000DF0E1EF0DF0EFEF0DF0000E0201006FF8
:101BC800000E016F000E026F000E036F050E00017C
:101BD800C86F6DEF04F0060EC86F6DEF04F0060EC7
:101BE800C86F000E3C6E58EF10F03C50ED6FEE6B76
:101BF800EE51000AD8B403EF0EF058EF10F0ED5193
:101C0800010AD8B4BFEF0DF0030AD8B4CFEF0DF036
:101C1800010AD8B46DEF04F0070AD8B46DEF04F0E8
:101C2800010AD8B46DEF04F0030AD8B4D9EF0DF067
:101C3800010AD8B46DEF04F00F0AD8B46DEF04F0C0
:101C4800010AD8B46DEF04F0030AD8B4F3EF0DF02D
:101C580058EF10F0D051D8A434EF0EF036EF0EF054
:101C68003AEF0EF0010ED06F6DEF04F0000ED06F5A
:101C78006DEF04F0D051D8A444EF0EF046EF0EF00B
:101C88003AEF0EF036EF0EF0D005D8A44EEF0EF076
:101C980050EF0EF0B9EF0EF00C0E186E000E81EC3E
:101CA8002EF00C0E466E3C0E186E010E81EC2EF0D6
:101CB8003C0E00018B6F000E8C6F000E8D6F000EB6
:101CC8008E6F000E186E020E81EC2EF0000E456E1F
:101CD8000C0E186E030E81EC2EF00C0E0001876FAF
:101CE800000E886F000E896F000E8A6F000E186E46
:101CF800040E81EC2EF0000E186E050E81EC2EF00D
:101D0800000E186E060E81EC2EF0000E186E070EEF
:101D180081EC2EF0000E186E080E81EC2EF0000EED
:101D2800186E090E81EC2EF0000E186E0A0E81EC6A
:101D38002EF0320E186E0B0E81EC2EF0320E0001D2
:101D4800E56FC80E186E0C0E81EC2EF0000E000127
:101D5800AA6FC80EA96F000E186E0D0E81EC2EF03A
:101D6800050E0001C86F6DEF04F0040EC86F6DEF2B
:101D780004F03C50ED6FEE6BEE51000AD8B4C7EF9B
:101D88000EF058EF10F0ED51010AD8B42EEF0EF016
:101D9800030AD8B43EEF0EF0010AD8B46DEF04F090
:101DA800070AD8B46DEF04F0010AD8B46DEF04F057
:101DB800030AD8B448EF0EF0010AD8B46DEF04F066
:101DC8000F0AD8B46DEF04F0010AD8B46DEF04F02F
:101DD800030AD8B4B4EF05F058EF10F03F50D8A478
:101DE800F8EF0EF0FAEF0EF005EF0FF0CC2B090E1E
:101DF800CC6501EF0FF003EF0FF005EF0FF0000EC9
:101E0800CC6F3F04D8A40BEF0FF00DEF0FF018EFD5
:101E18000FF0CB2B090ECB6514EF0FF016EF0FF078
:101E280018EF0FF0000ECB6F020E3F18D8A41FEF6B
:101E38000FF021EF0FF02CEF0FF0CA2B090ECA6537
:101E480028EF0FF02AEF0FF02CEF0FF0000ECA6FFB
:101E5800030E3F18D8A433EF0FF035EF0FF06DEFF6
:101E680004F0C92B090EC9653CEF0FF03EEF0FF0E7
:101E78006DEF04F0000EC96F6DEF04F03F50D8A469
:101E880048EF0FF04AEF0FF055EF0FF0CC07090EAF
:101E9800CC6551EF0FF053EF0FF055EF0FF0090E2F
:101EA800CC6F3F04D8A45BEF0FF05DEF0FF068EF45
:101EB8000FF0CB07090ECB6564EF0FF066EF0FF05C
:101EC80068EF0FF0090ECB6F020E3F18D8A46FEF22
:101ED8000FF071EF0FF07CEF0FF0CA07090ECA651B
:101EE80078EF0FF07AEF0FF07CEF0FF0090ECA6F62
:101EF800030E3F18D8A483EF0FF085EF0FF06DEFB6
:101F080004F0C907090EC9658CEF0FF08EEF0FF0CA
:101F18006DEF04F0090EC96F6DEF04F03F2A030E50
:101F28003F6499EF0FF09BEF0FF06DEF04F0000E98
:101F38003F6E6DEF04F0CC05D8A4A5EF0FF0A7EF26
:101F48000FF0CFEF0FF0050ECB19D8A4AEEF0FF0BE
:101F5800B0EF0FF0CFEF0FF0CA51D8A4B6EF0FF0E3
:101F6800B8EF0FF0CFEF0FF0020EC919D8A4BFEFEA
:101F78000FF0C1EF0FF0CFEF0FF0010EC86F000E9A
:101F88003F6E000ECC6F000ECB6F000ECA6F000EB6
:101F9800C96F6DEF04F00A0EC86F6DEF04F03C5086
:101FA800ED6FEE6BEE51000AD8B4DDEF0FF058EF8D
:101FB80010F0ED51010AD8B4F2EF0EF0030AD8B4CC
:101FC80042EF0FF0010AD8B46DEF04F0070AD8B455
:101FD8006DEF04F0010AD8B492EF0FF0030AD8B4F9
:101FE8009FEF0FF0010AD8B46DEF04F00F0AD8B4D0
:101FF8006DEF04F0010AD8B4D0EF05F0030AD8B4A5
:102008006DEF04F058EF10F0B82BC80EB8650FEF5D
:1020180010F011EF10F058EF10F0000EB86F010E2D
:10202800C86F58EF10F0C851ED6FEE6BEE51000A13
:10203800D8B421EF10F058EF10F0ED51000AD8B4E1
:1020480079EF05F0010AD8B4D6EF05F0030AD8B441
:1020580051EF08F0010AD8B47FEF0BF0070AD8B4A3
:102068008AEF0DF0010AD8B408EF10F0030AD8B4CB
:1020780047EF0DF00C0AD8B4D3EF0FF0010AD8B42B
:1020880005EF07F0070AD8B4EBEF0AF0010AD8B455
:1020980006EF0DF0030AD8B4BDEF0EF01E0AD8B44F
:1020A800F9EF0DF058EF10F01200D388D38CD39AC3
:1020B800000E0001B66F60696169626963696469ED
:1020C800656966696769686969696A69000E876F21
:1020D800000E886F000E896F000E8A6F000E836FE6
:1020E800000E846F000E856F000E866F000E466E20
:1020F800000E8B6F000E8C6F000E8D6F000E8E6FB2
:10210800000EE56F000E3D6E000E0101246F000EFB
:10211800256F000E266F000E276F000E206F000E31
:10212800216F000E226F000E236F000E1C6F000E31
:102138001D6F000E1E6F000E1F6F000E0001D76F7F
:10214800000E01018C6F000E646F000E636F000EAD
:10215800906F000E00016F6F000E706F000E716FB0
:10216800000E726F000E0101146F000E156F000E45
:10217800166F000E176F000E106F000E116F000E15
:10218800126F000E136F000E0C6F000E0D6F000E15
:102198000E6F000E0F6F000E0001946F000E936F0C
:1021A800000E396E000E386E000EE66F000EE76FF7
:1021B800000EB36F000ED66F000EC86F000E446E8F
:1021C800000EAF6F000E0101626F000E616F000E0E
:1021D800896F000E0001D06F000EAA6F000EA96F64
:1021E800000E3C6E000ED16F000ED56F000EAE6F64
:1021F800000E0101606F000E5F6F000E876F000E0A
:102208005E6F000E5D6F000E00019E6F000E9D6FE9
:10221800000E01015C6F000E5B6F000E5A6F000E1E
:10222800596F000E586F000E576F000E7E6F000E2C
:102238007D6F000E506F000E516F000E526F000E32
:10224800536F000E0001BC6F1F0EBC652EEF11F01E
:1022580030EF11F032EF11F041EF11F0BC51040DE5
:10226800000EF324D96E020EF420DA6EDE6ADE6AFE
:10227800DE6ADD6ABC2B28EF11F019EC15F0000EB0
:102288000001AD6F87C018F088C019F089C01AF036
:102298008AC01BF0100E1C6E0E0E1D6E000E1E6EF8
:1022A800000E1F6EBAEC2DF018C0F7F019C0F8F048
:1022B8001AC0F9F01BC0FAF083C018F084C019F0F6
:1022C80085C01AF086C01BF03C0E1C6E000E1D6EF9
:1022D800000E1E6E000E1F6EBAEC2DF01850000195
:1022E800F7256F6F1950F821706F1A50F921716F27
:1022F8001B50FA21726FA7513A1807E1A8513B18F1
:10230800D8A489EF11F08BEF11F09AEF11F06F510B
:102318007B5D70517C5971517D5972517E59D8A09D
:1023280098EF11F09AEF11F0DDEF11F0010EA725EB
:10233800F76F000EA821F86F3A50F71907E13B50E4
:10234800F819D8A4AAEF11F0ACEF11F0BBEF11F017
:102358007B516F5D7C5170597D5171597E51725915
:10236800D8A0B9EF11F0BBEF11F0DDEF11F0A751D4
:102378003A5CF76FA8513B58F86FF85107E1020E25
:10238800F75DD8B0CAEF11F0CCEF11F0DDEF11F026
:10239800A7513A5CF76FA8513B58F86FF85109E11B
:1023A800020EF75DD8A0DBEF11F0DDEF11F01DEFA5
:1023B80012F06F517B5D70517C5971517D5972518A
:1023C8007E59D8B0EAEF11F0ECEF11F01DEF12F0E2
:1023D8004550D8A4F2EF11F0F4EF11F0F6EF11F038
:1023E800F9EC24F04504D8A4FCEF11F0FEEF11F04D
:1023F8001DEF12F04A0E0001606F3B0E616F0A0E6E
:10240800636F6469870E666F840E676FAF0E686FBF
:10241800480E696F12EF12F02EEC20F0050E3C18F2
:10242800D8A419EF12F01BEF12F010EF12F0F9EC2C
:1024380024F0C3EC19F08AEC02F0000EBAEC22F09A
:102448000001AD05D8A42BEF12F02DEF12F035EFF7
:1024580012F04550D8B433EF12F035EF12F04DEFCB
:1024680012F04504D8A43BEF12F03DEF12F04FEF05
:1024780012F0AD05D8A443EF12F045EF12F04FEF7C
:1024880012F0AF05D8A44BEF12F04DEF12F04FEF5A
:1024980012F0F9EC24F0010157055811D8A457EFB0
:1024A80012F059EF12F0C7EF13F07FC008F180C0A7
:1024B80009F181C00AF182C00BF17FC008F180C028
:1024C80009F181C00AF182C00BF1000E0001926F80
:1024D800000E916F92BF7AEF12F0925109E1040E4B
:1024E800915DD8A07AEF12F07CEF12F07EEF12F037
:1024F8009AEF12F008C118F091510E0FC5EC2EF0AA
:1025080009C1F7F00AC1F8F00BC1F9F00001FA6B44
:10251800F9BFFA69F7C008F1F8C009F1F9C00AF182
:10252800FAC00BF1914B922B6EEF12F02CC018F001
:10253800110E34EC30F00001F76FF7512C6E2D6A54
:102548002E6A2F6A2CC018F0100E34EC30F00001FF
:10255800F76FF7512CC0F9F02DC0FAF02EC0FBF040
:10256800F86BF8252C6E000EF9212D6E000EFA215D
:102578002E6E000EFB212F6E2CC018F00F0E34ECBF
:1025880030F00001F76FF7512CC0F9F02DC0FAF0C8
:102598002EC0FBF0F86BF8252C6E000EF9212D6E7D
:1025A800000EFA212E6E000EFB212F6E2CC018F0A3
:1025B8000E0E34EC30F00001F76FF7512CC0F9F033
:1025C8002DC0FAF02EC0FBF0F86BF8252C6E000E2B
:1025D800F9212D6E000EFA212E6E000EFB212F6EB2
:1025E8007FC008F180C009F181C00AF182C00BF1F7
:1025F8007F512C180DE180512D180AE181512E18B8
:1026080007E182512F18D8A40CEF13F00EEF13F046
:1026180061EF12F000C26BF001C26CF002C26DF003
:1026280003C26EF000C26BF001C26CF002C26DF022
:1026380003C26EF0000E0001926F000E916F92BF00
:102648002FEF13F0925109E1040E915DD8A02FEFFE
:1026580013F031EF13F033EF13F055EF13F06BC0B5
:1026680018F09151640FC5EC2EF06BC0F7F06CC0F8
:10267800F8F06DC0F9F06EC0FAF0F8C0F7F0F9C0E4
:10268800F8F0FAC0F9F00001FA6BF7C06BF0F8C087
:102698006CF0F9C06DF0FAC06EF0914B922B23EFFD
:1026A80013F030C018F0670E34EC30F00001F76F0B
:1026B800F751306E316A326A336A30C018F0660EEC
:1026C80034EC30F00001F76FF75130C0F9F031C049
:1026D800FAF032C0FBF0F86BF825306E000EF921E5
:1026E800316E000EFA21326E000EFB21336E30C0BF
:1026F80018F0650E34EC30F00001F76FF75130C078
:10270800F9F031C0FAF032C0FBF0F86BF825306E02
:10271800000EF921316E000EFA21326E000EFB21F7
:10272800336E30C018F0640E34EC30F00001F76FEF
:10273800F75130C0F9F031C0FAF032C0FBF0F86B55
:10274800F825306E000EF921316E000EFA21326E36
:10275800000EFB21336E3050020100190DE131509B
:1027680001190AE13250021907E133500319D8A4BC
:10277800C0EF13F0C2EF13F016EF13F0000E0101D3
:10278800586F000E576F3C50D8A4CDEF13F0CFEF21
:1027980013F0D6EF13F092869288928A2EEC20F0EE
:1027A800E0EF13F00A0E3C64DCEF13F0DEEF13F0F9
:1027B800E0EF13F0000E3C6E0001D105D8B4E7EF4E
:1027C80013F0E9EF13F0F5EF14F0D7EC2AF08BC013
:1027D800EDF08CC0EEF08DC0EFF08EC0F0F046C08A
:1027E800F1F0E5C0F2F06AEC26F04650186E196A6E
:1027F8001A6A1B6A8BC01CF08CC01DF08DC01EF0BD
:102808008EC01FF0BAEC2DF018C0FCF019C0FDF016
:102818001AC0FEF01BC0FFF0FCC018F0FDC019F094
:10282800FEC01AF0FFC01BF0640E1C6E000E1D6E79
:10283800000E1E6E000E1F6EBAEC2DF018C028F1A7
:1028480019C029F11AC02AF11BC02BF100017F51D0
:102858007B5D80517C5981517D5982517E59D8B018
:1028680038EF14F03AEF14F088EF14F07F517B5DE5
:10287800F76F80517C59F86F81517D59F96F8251FA
:102888007E59FA6F800EF72501010C6F510E000179
:10289800F82101010D6F010E0001F92101010E6FF0
:1028A800000E0001FA2101010F6F0C511C5D0D5142
:1028B8001D590E511E590F511F59D8B066EF14F00B
:1028C80068EF14F0C3EF14F0020100510101285D14
:1028D80002010151010129590201025101012A593C
:1028E8000201035101012B59D8A07DEF14F07FEFAD
:1028F80014F0C3EF14F0010E0001D76F000EAB6F98
:10290800000ED66FC3EF14F07F517B5D01010C6F91
:10291800000180517C5901010D6F000181517D59E1
:1029280001010E6F000182517E5901010F6F0C5198
:102938001C5D0D511D590E511E590F511F59D8B00C
:10294800A8EF14F0AAEF14F0C3EF14F0020100513D
:102958000101285D020101510101295902010251B9
:1029680001012A590201035101012B59D8A0BFEFD7
:1029780014F0C1EF14F0C3EF14F07FEF14F000016E
:10298800D705D8A4CAEF14F0CCEF14F0D5EF14F0A3
:1029980080B4D1EF14F0D3EF14F0D5EF14F0010E9A
:1029A800D56FD505D8A4DBEF14F0DDEF14F01DEFDB
:1029B80012F0D705D8A4E3EF14F0E5EF14F01DEFFB
:1029C80012F080A4EAEF14F0ECEF14F01DEF12F00F
:1029D80088EC27F0000E0001D56F000ED76F1DEFB1
:1029E80012F04504D8A4FBEF14F0FDEF14F005EF46
:1029F80015F0000EE66F000EE76F010EB36F010EC3
:102A0800D66F4550D8A40BEF15F00DEF15F01DEF5C
:102A180012F0000EE66F000EE76F000EB36F000EA7
:102A2800D66F1DEF12F088EF02F03C0E926E060E84
:102A3800936E000E946E000E0F01386F000E396F02
:102A4800000E3A6F80808082808C808E000E816EAE
:102A58008268000E476E82680001BB69BA69000E81
:102A6800476E080E47643BEF15F03DEF15F03FEF5A
:102A780015F0DCEF15F0000EBD6F000EBC6F090EEF
:102A8800BC6549EF15F04BEF15F04DEF15F072EFFF
:102A980015F0060EBC6153EF15F055EF15F059EF20
:102AA80015F0BBC082FF5BEF15F0BAC082FFBCC057
:102AB800EAF0EA3BF00EEA17C00EEA17BC51030B26
:102AC800EA25806EC80E00D0E82EFDD7808080826F
:102AD800808C808E0001BC2B43EF15F0BD2B590E66
:102AE800BD6579EF15F07BEF15F041EF15F047C0A4
:102AF800EAF0FE0EEB6FEA2B84EF15F0D890EB3777
:102B0800EA2F82EF15F00001EB51BA6FACEF15F028
:102B1800BF0EBB6FD9EF15F09F0EBB6FD9EF15F045
:102B28008F0EBB6FD9EF15F00F0EBB6FD9EF15F0F5
:102B38000B0EBB6FD9EF15F0090EBB6FD9EF15F06F
:102B4800080EBB6FD9EF15F0000EBB6FD9EF15F06B
:102B58004750EA6FEB6BEB51000AD8B4B6EF15F0AB
:102B6800D9EF15F0EA51000AD8B48CEF15F0010A34
:102B7800D8B490EF15F0030AD8B494EF15F0010A11
:102B8800D8B498EF15F0070AD8B49CEF15F0010AED
:102B9800D8B4A0EF15F0030AD8B4A4EF15F0010AD1
:102BA800D8B4A8EF15F0D9EF15F0472A35EF15F08E
:102BB80080808082808C808E8268000EBC6F590E67
:102BC800BC65E9EF15F0EBEF15F0EDEF15F004EF4C
:102BD80016F080808092808C808E0D0E0001EA6F46
:102BE800FB0EE82EFED7EA2FFCD700D00001BC2B45
:102BF800590EBC6502EF16F004EF16F0EDEF15F074
:102C0800000EBC6F590EBC650CEF16F00EEF16F0F7
:102C180010EF16F027EF16F080908082809C808E4F
:102C28000D0E0001EA6FFB0EE82EFED7EA2FFCD747
:102C380000D00001BC2B590EBC6525EF16F027EF1C
:102C480016F010EF16F0D59ED58CD59AD598D59656
:102C5800D550F80B0109D56E000ED76E060ED66E4C
:102C6800F294F28AF194D08EF28EF28CD58E80A6F0
:102C780040EF16F042EF16F04AEF16F080B847EF33
:102C880016F049EF16F04AEF16F0805080A64FEF85
:102C980016F051EF16F061EF16F080B856EF16F007
:102CA80058EF16F061EF16F080BA5DEF16F05FEF9F
:102CB80016F061EF16F03BEC1DF0D59EF29AF29EED
:102CC800F29C34C018F0000E1CEC30F0466E050E75
:102CD8000001BE6572EF16F074EF16F076EF16F08D
:102CE8000C0E466EBE2B070E46607DEF16F07FEF8A
:102CF80016F087EF16F00D0E466085EF16F087EF99
:102D080016F065EF16F0000EBE6F34C018F0010E15
:102D18001CEC30F00001EA6FEA518B6F8C6B8D6B05
:102D28008E6B050EBE659BEF16F09DEF16F0A5EFB6
:102D380016F03C0E8B6F000E8C6F000E8D6F000E20
:102D48008E6FBE2B8B518C118D118E11D8A4AFEFC5
:102D580016F0B1EF16F0BEEF16F08E518D118C11F2
:102D680007E13D0E8B5DD8B0BCEF16F0BEEF16F054
:102D780089EF16F0000EBE6F34C018F0020E1CEC7E
:102D880030F0456E4504D8A4CCEF16F0CEEF16F01F
:102D9800D3EF16F0010E0001E66FD6EF16F0000E25
:102DA8000001E66F050EBE65DCEF16F0DEEF16F0EB
:102DB800E2EF16F0000E456E000EE66FBE2B020E17
:102DC8004560E9EF16F0EBEF16F0C0EF16F0000ED5
:102DD800BE6F34C018F0060E1CEC30F00001EA6F2C
:102DE800EA51876F886B896B8A6B34C018F0050EBF
:102DF8001CEC30F00001EA6FEA5187C0ECF088C0A3
:102E0800EDF089C0EEF0EB6BEB25876F000EEC213F
:102E1800886F000EED21896F000EEE218A6F34C095
:102E280018F0040E1CEC30F00001EA6FEA5187C07C
:102E3800ECF088C0EDF089C0EEF0EB6BEB25876F06
:102E4800000EEC21886F000EED21896F000EEE2137
:102E58008A6F34C018F0030E1CEC30F00001EA6FE2
:102E6800EA5187C0ECF088C0EDF089C0EEF0EB6B5A
:102E7800EB25876F000EEC21886F000EED21896F1E
:102E8800000EEE218A6F050EBE654DEF17F04FEF6D
:102E980017F057EF17F00C0E876F000E886F000EB3
:102EA800896F000E8A6FBE2B8A518911881107E13C
:102EB800190E875DD8B063EF17F065EF17F0EDEFE7
:102EC80016F0000EBE6F34C018F00A0E1CEC30F07D
:102ED8000001EA6FEA51836F846B856B866B34C09F
:102EE80018F0090E1CEC30F00001EA6FEA5183C0BB
:102EF800ECF084C0EDF085C0EEF0EB6BEB25836F52
:102F0800000EEC21846F000EED21856F000EEE217E
:102F1800866F34C018F0080E1CEC30F00001EA6F20
:102F2800EA5183C0ECF084C0EDF085C0EEF0EB6BA5
:102F3800EB25836F000EEC21846F000EED21856F69
:102F4800000EEE21866F34C018F0070E1CEC30F02E
:102F58000001EA6FEA5183C0ECF084C0EDF085C04F
:102F6800EEF0EB6BEB25836F000EEC21846F000E07
:102F7800ED21856F000EEE21866F050EBE65C7EF49
:102F880017F0C9EF17F0D1EF17F0000E836F000E9E
:102F9800846F000E856F000E866FBE2B8A518911D3
:102FA800881107E13C0E875DD8B0DDEF17F0DFEF41
:102FB80017F067EF17F0000EBE6F34C018F00B0E55
:102FC8001CEC30F00001E56F050EBE65EEEF17F062
:102FD800F0EF17F0F2EF17F0320EE56FBE2B050E8B
:102FE800E561F9EF17F0FBEF17F003EF18F0600E4B
:102FF800E56101EF18F003EF18F0E1EF17F0000EAC
:10300800BE6F34C018F00D0E1CEC30F00001EA6FF2
:10301800EA51A96FAA6B34C018F00C0E1CEC30F002
:103028000001EA6FA951EB6FEA51A96FEBC0AAF052
:10303800050EBE6522EF18F024EF18F028EF18F0FF
:10304800010EAA6FF40EA96FBE2BA951AA11D8B40C
:1030580030EF18F032EF18F005EF18F0110EA95DF7
:10306800270EAA59D8B03BEF18F03DEF18F005EF3E
:1030780018F0000EBE6F34C018F0110E1CEC30F0C2
:103088000001EA6FEA517F6F806B816B826B34C0FD
:1030980018F0100E1CEC30F00001EA6FEA517FC006
:1030A800ECF080C0EDF081C0EEF0EB6BEB257F6FAC
:1030B800000EEC21806F000EED21816F000EEE21D5
:1030C800826F34C018F00F0E1CEC30F00001EA6F6C
:1030D800EA517FC0ECF080C0EDF081C0EEF0EB6B00
:1030E800EB257F6F000EEC21806F000EED21816FC4
:1030F800000EEE21826F34C018F00E0E1CEC30F07A
:103108000001EA6FEA517FC0ECF080C0EDF081C0A9
:10311800EEF0EB6BEB257F6F000EEC21806F000E5D
:10312800ED21816F000EEE21826F050EBE659FEFC7
:1031380018F0A1EF18F0A9EF18F0000E7F6F000E3D
:10314800806F000E816F000E826FBE2B82510BE1E3
:10315800D90E7F5D530E8059010E8159D8B0B7EF53
:1031680018F0B9EF18F03FEF18F0000EBE6F34C03A
:1031780018F0130E1CEC30F00001EA6FEA51A76F4B
:10318800A86B34C018F0120E1CEC30F00001EA6F86
:10319800A751EB6FEA51A76FEBC0A8F0050EBE650B
:1031A800D8EF18F0DAEF18F0DEEF18F0000EA86F7D
:1031B800010EA76FBE2B700EA75D010EA859D8B0DF
:1031C800E8EF18F0EAEF18F0BBEF18F0000EBE6F4A
:1031D800000E476E1E0E4764F4EF18F0F6EF18F075
:1031E800F8EF18F0A0EF19F034C018F04750040DAC
:1031F800F350670F1CEC30F00001EA6FEA51346EAF
:10320800356A366A376A34C018F04750040DF350EF
:10321800660F1CEC30F00001EA6FEA5134C0ECF0A4
:1032280035C0EDF036C0EEF0EB6BEB25346E000EDA
:10323800EC21356E000EED21366E000EEE21376E54
:1032480034C018F04750040DF350650F1CEC30F0F3
:103258000001EA6FEA5134C0ECF035C0EDF036C039
:10326800EEF0EB6BEB25346E000EEC21356E000EA4
:10327800ED21366E000EEE21376E34C018F047503F
:10328800040DF350640F1CEC30F00001EA6FEA51B2
:1032980034C0ECF035C0EDF036C0EEF0EB6BEB254A
:1032A800346E000EEC21356E000EED21366E000EE8
:1032B800EE21376E4750040D000EF324D96E020E2E
:1032C800F420DA6E34C0DEFF35C0DEFF36C0DEFF24
:1032D80037C0DEFF050EBE6574EF19F076EF19F002
:1032E80082EF19F04750040D000EF324D96E020E38
:1032F800F420DA6EDE6ADE6ADE6ADD6ABE2B4750CB
:10330800040D000EF324D96E020EF420DA6E030EBB
:10331800DB500BE1410EDE5C190EDE58010EDE5863
:10332800D8B099EF19F09BEF19F0F8EF18F0000EEC
:10333800BE6F472AEEEF18F0D58EF28AF28EF28C25
:10334800000E0101906F010E0001E46F000EBAEC4F
:1033580022F0000E0001E46F40C134F141C135F1A3
:1033680042C136F143C137F15F0EE565BEEF19F092
:10337800C0EF19F0C2EF19F0000EE56F1200F8EF78
:103388001CF09D519E11D8B4CCEF19F0CEEF19F076
:10339800D9EF19F09E5109E1320E9D5DD8A0D7EF03
:1033A80019F0D9EF19F0E9EF19F0D105D8A4DFEF3A
:1033B80019F0E1EF19F00BEF1AF04504D8A4E7EF84
:1033C80019F0E9EF19F00BEF1AF09D4B9E2B4A0EFE
:1033D800606F3B0E616F0A0E636F6469870E666FDC
:1033E800840E676FAF0E686F480E696F9E5109E1D2
:1033F8000F0E9D5DD8A003EF1AF005EF1AF03AEF13
:103408001DF0000E9E6F000E9D6F3AEF1DF04450A8
:10341800D8A411EF1AF013EF1AF032EF1AF0000ED9
:10342800206E010E216E000E226E46505EEC2BF0CF
:10343800030E206E040E216E010E226E00018B51C8
:103448005EEC2BF000C2EDF001C2EEF002C2EFF02C
:1034580003C2F0F08FEC28F03AEF1DF0000E206E5A
:10346800010E216E000E226E44505EEC2BF000011E
:10347800636964694450040D000EF324D96E020E8A
:10348800F420DA6EDECFEDF0DECFEEF0DECFEFF037
:10349800DECFF0F08FEC28F03AEF1DF0390E606FB8
:1034A8000A0E616F790E636FF70E646F090E666F0F
:1034B800AD0E676FC80E686F660E696F3AEF1DF044
:1034C800390E606F0A0E616F790E636FF70E646FC5
:1034D800090E666FAF0E676F920E686F070E696F01
:1034E8003AEF1DF0390E606F0A0E616F790E636F47
:1034F800F70E646FA10E666FA30E676F920E686F6A
:10350800E60E696F3AEF1DF0D051D8A48EEF1AF08D
:1035180090EF1AF096EF1AF0EA0E606F6A0E616F7C
:103528009AEF1AF02C0E606FBB0E616F4A0E636F34
:10353800180E646F8E0E666FA00E676FE30E686FCD
:10354800C70E696F3AEF1DF0FA0E606F180E616FC3
:103558002C0E636F180E646F870E666F6769686953
:1035680069693AEF1DF0FA0E606F180E616F2C0E44
:10357800636F180E646F870E666F6769CF51D8A4A2
:10358800C8EF1AF0CAEF1AF0CEEF1AF0AB0E686F58
:10359800A30E696FCF05D8A4D4EF1AF0D6EF1AF0AE
:1035A8003AEF1DF0920E686F660E696F3AEF1DF0E4
:1035B8003E2A640E3E64E3EF1AF0E5EF1AF0E7EFF7
:1035C8001AF0000E3E6E320E3E60EDEF1AF0EFEF8D
:1035D8001AF0FAEF1AF04350D8A4F5EF1AF0F7EF03
:1035E8001AF0FAEF1AF0606900EF1BF042500A0F68
:1035F80067EC29F00001606F320E3E6006EF1BF0A9
:1036080008EF1BF013EF1BF04304D8A40EEF1BF0D8
:1036180010EF1BF013EF1BF0616919EF1BF041501D
:103628000A0F67EC29F00001616F320E3E601FEF50
:103638001BF021EF1BF02DEF1BF0020E4318D8A44E
:1036480028EF1BF02AEF1BF02DEF1BF0636933EF17
:103658001BF040500A0F67EC29F00001636F320E2F
:103668003E6039EF1BF03BEF1BF047EF1BF0030EFA
:103678004318D8A442EF1BF044EF1BF047EF1BF0B0
:1036880064694DEF1BF0CE510A0F67EC29F0000179
:10369800646F6669B2EF1AF03E2A640E3E6457EF13
:1036A8001BF059EF1BF05BEF1BF0000E3E6E320E65
:1036B8003E6061EF1BF063EF1BF06EEF1BF04350B1
:1036C800D8A469EF1BF06BEF1BF06EEF1BF060697D
:1036D80074EF1BF042500A0F67EC29F00001606F8D
:1036E800320E3E607AEF1BF07CEF1BF087EF1BF089
:1036F8004304D8A482EF1BF084EF1BF087EF1BF084
:1037080061698DEF1BF041500A0F67EC29F0000149
:10371800616F320E3E6093EF1BF095EF1BF0A1EF47
:103728001BF0020E4318D8A49CEF1BF09EEF1BF071
:10373800A1EF1BF06369A7EF1BF040500A0F67EC7D
:1037480029F00001636F320E3E60ADEF1BF0AFEF62
:103758001BF0BAEF1BF0030E4318D8A4B6EF1BF00A
:10376800B8EF1BF0BAEF1BF044EF1BF0CE510A0F75
:1037780067EC29F00001646F4DEF1BF03E2A640EE0
:103788003E64C9EF1BF0CBEF1BF0CDEF1BF0000E32
:103798003E6E320E3E60D3EF1BF0D5EF1BF0E0EF2C
:1037A8001BF04350D8A4DBEF1BF0DDEF1BF0E0EF7C
:1037B8001BF06669E5EF1BF0425067EC29F0000149
:1037C800666F320E3E60EBEF1BF0EDEF1BF0F8EF8B
:1037D8001BF04304D8A4F3EF1BF0F5EF1BF0F8EF50
:1037E8001BF06769FDEF1BF0415067EC29F0000101
:1037F800676F320E3E6003EF1CF005EF1CF011EF0F
:103808001CF0020E4318D8A40CEF1CF00EEF1CF0AD
:1038180011EF1CF0686916EF1CF0405067EC29F0B6
:103828000001686F320E3E601CEF1CF01EEF1CF0AA
:103838002AEF1CF0030E4318D8A425EF1CF027EF3D
:103848001CF02AEF1CF069692FEF1CF0CE5167ECD1
:1038580029F00001696F636964696569000E206E6B
:10386800010E216E000E226ECD515EEC2BF03AEF68
:103878001DF03E2A640E3E6444EF1CF046EF1CF037
:1038880048EF1CF0000E3E6E320E3E604EEF1CF00C
:1038980050EF1CF064EF1CF0D051D8A456EF1CF088
:1038A80058EF1CF05EEF1CF0EA0E606F6A0E616F55
:1038B80066EF1CF02C0E606FBB0E616F66EF1CF09C
:1038C800606961694A0E636F180E646F8E0E666FC9
:1038D800A00E676FE30E686F470E696F3AEF1DF031
:1038E8003E2A640E3E647BEF1CF07DEF1CF07FEFF8
:1038F8001CF0000E3E6E980E606F0A0E616F2C0E63
:10390800636F240E646F3F50D8A48DEF1CF08FEFC7
:103918001CF09AEF1CF0320E3E6095EF1CF097EF0A
:103928001CF09AEF1CF066699FEF1CF0CC5167EC15
:1039380029F00001666F3F04D8A4A5EF1CF0A7EF9B
:103948001CF0B2EF1CF0320E3E60ADEF1CF0AFEF92
:103958001CF0B2EF1CF06769B7EF1CF0CB5167ECB5
:1039680029F00001676F020E3F18D8A4BEEF1CF0C3
:10397800C0EF1CF0CBEF1CF0320E3E60C6EF1CF01F
:10398800C8EF1CF0CBEF1CF06869D0EF1CF0CA51EF
:1039980067EC29F00001686F030E3F18D8A4D7EF31
:1039A8001CF0D9EF1CF0E3EF1CF0320E3E60DFEFA5
:1039B8001CF0E1EF1CF0E3EF1CF0B4EF1AF0C95172
:1039C80067EC29F00001696F3AEF1DF060696169E1
:1039D80063696469920E666FA00E676FE30E686F85
:1039E800840E696F3AEF1DF00001C851F16FF26B58
:1039F800F251000AD8B403EF1DF03AEF1DF0F1516F
:103A0800000AD8B4C5EF19F0010AD8B452EF1AF079
:103A1800030AD8B464EF1AF0010AD8B476EF1AF0A2
:103A2800070AD8B488EF1AF0010AD8B4EAEF1CF0F4
:103A3800030AD8B4A8EF1AF00C0AD8B474EF1CF033
:103A4800010AD8B4DCEF1AF0070AD8B450EF1BF01B
:103A5800010AD8B4C2EF1BF0030AD8B43DEF1CF03A
:103A68001E0AD8B4B7EF1AF03AEF1DF012000001A1
:103A780060696169626963696469656966696769DA
:103A8800686969698038E8461F0BFF0A070BE36F0E
:103A980076EF1DF0070E0001E96F7D0EE82EFED7C8
:103AA800E92FFCD78038E8461F0BFF0A070B0001F7
:103AB800E36F80B662EF1DF064EF1DF076EF1DF046
:103AC80080A869EF1DF06BEF1DF076EF1DF080AA5E
:103AD80070EF1DF072EF1DF076EF1DF0000E606FB5
:103AE800000E616FE305D8A47CEF1DF07EEF1DF09A
:103AF8004EEF1DF0070E0001E96F7D0EE82EFED790
:103B0800E92FFCD78038E8461F0BFF0A070B000196
:103B1800E36FB7EF1DF0070E0001E96F7D0EE82E89
:103B2800FED7E92FFCD78038E8461F0BFF0A070BA2
:103B38000001E36F80A6A3EF1DF0A5EF1DF0B7EF1E
:103B48001DF080B8AAEF1DF0ACEF1DF0B7EF1DF027
:103B580080AAB1EF1DF0B3EF1DF0B7EF1DF0000E16
:103B6800636F000E646F020EE319D8A4BEEF1DF058
:103B7800C0EF1DF08FEF1DF0070E0001E96F7D0EFD
:103B8800E82EFED7E92FFCD78038E8461F0BFF0A3E
:103B9800070B0001E36FF9EF1DF0070E0001E96F55
:103BA8007D0EE82EFED7E92FFCD78038E8461F0B9C
:103BB800FF0A070B0001E36F80B6E5EF1DF0E7EFA2
:103BC8001DF0F9EF1DF080B8ECEF1DF0EEEF1DF0E1
:103BD800F9EF1DF080AAF3EF1DF0F5EF1DF0F9EFF6
:103BE8001DF0000E666F000E676F030EE319D8A470
:103BF80000EF1EF002EF1EF0D1EF1DF0070E0001DE
:103C0800E96F7D0EE82EFED7E92FFCD78038E8460D
:103C18001F0BFF0A070B0001E36F3BEF1EF0070EB7
:103C28000001E96F7D0EE82EFED7E92FFCD780381A
:103C3800E8461F0BFF0A070B0001E36F80A627EF7A
:103C48001EF029EF1EF03BEF1EF080A82EEF1EF0AD
:103C580030EF1EF03BEF1EF080BA35EF1EF037EF65
:103C68001EF03BEF1EF0000E686F000E696F040E29
:103C7800E319D8A442EF1EF044EF1EF013EF1EF034
:103C8800070E0001E96F7D0EE82EFED7E92FFCD75D
:103C98008038E8461F0BFF0A070B0001E36F7BEF34
:103CA8001EF0070E0001E96F7D0EE82EFED7E92F02
:103CB800FCD78038E8461F0BFF0A070B0001E36FAB
:103CC80080B669EF1EF06BEF1EF07BEF1EF080A848
:103CD80070EF1EF072EF1EF07BEF1EF080BA77EFE8
:103CE8001EF079EF1EF07BEF1EF0010EE76F050E58
:103CF800E319D8A482EF1EF084EF1EF055EF1EF0F2
:103D0800070E0001E96F7D0EE82EFED7E92FFCD7DC
:103D18008038E8461F0BFF0A070B0001E36FBBEF73
:103D28001EF0070E0001E96F7D0EE82EFED7E92F81
:103D3800FCD78038E8461F0BFF0A070B0001E36F2A
:103D480080A6A9EF1EF0ABEF1EF0BBEF1EF080B807
:103D5800B0EF1EF0B2EF1EF0BBEF1EF080BAB7EF67
:103D68001EF0B9EF1EF0BBEF1EF0010EE66F060E57
:103D7800E319D8A4C2EF1EF0C4EF1EF095EF1EF0B1
:103D8800070E0001E96F7D0EE82EFED7E92FFCD75C
:103D98008038E8461F0BFF0A070B0001E36F070E88
:103DA800E319D8A4DAEF1EF0DCEF1EF0CCEF1EF01A
:103DB800000EE66F000EE76F890E606F6A0E616F86
:103DC8006269780E636F6A0E646F65692F0E666F9D
:103DD800A40E676FC00E686FC00E696F80A4F7EFFE
:103DE8001EF0F9EF1EF0F2EF1EF080B4FEEF1EF0A9
:103DF80000EF1FF0F9EF1EF080A405EF1FF007EFAA
:103E08001FF000EF1FF0070E0001E96F7D0EE82E8E
:103E1800FED7E92FFCD780A414EF1FF016EF1FF090
:103E28004FEF1FF0320E0001E26F210E816E1A0E65
:103E38000001E96FF80EE82EFED7E92FFCD700F055
:103E4800090E816E1A0E0001E96FF80EE82EFED7F2
:103E5800E92FFCD700F0180E816E1A0E0001E96FE9
:103E6800F80EE82EFED7E92FFCD700F0300E816E51
:103E78001A0E0001E96FF80EE82EFED7E92FFCD7DD
:103E880000F00001E207E251D8A44DEF1FF04FEF18
:103E98001FF019EF1FF0D59EF29AF29EF29C0C0EBD
:103EA800186E000EA3EC2EF00C0E466E3C0E186E2B
:103EB800010EA3EC2EF03C0E00018B6F000E8C6FF0
:103EC800000E8D6F000E8E6F000E186E020EA3ECA2
:103ED8002EF0000E456E0C0E0001876F000E886FE5
:103EE800000E896F000E8A6F0C0E186E030EA3EC7D
:103EF8002EF0000E186E040EA3EC2EF0000E186EB5
:103F0800050EA3EC2EF0000E186E060EA3EC2EF094
:103F1800000E0001836F000E846F000E856F000E87
:103F2800866F000E186E070EA3EC2EF0000E186EAA
:103F3800080EA3EC2EF0000E186E090EA3EC2EF05E
:103F4800000E186E0A0EA3EC2EF0320E0001E56F7B
:103F5800320E186E0B0EA3EC2EF0000E0001AA6FA5
:103F6800C80EA96FC80E186E0C0EA3EC2EF0000E2A
:103F7800186E0D0EA3EC2EF0000E00017F6F000EE0
:103F8800806F000E816F000E826F000E186E0E0E8D
:103F9800A3EC2EF0000E186E0F0EA3EC2EF0000E00
:103FA800186E100EA3EC2EF0000E186E110EA3EC76
:103FB8002EF0000E0001A86F000EA76F000E186EFD
:103FC800120EA3EC2EF0000E186E130EA3EC2EF0BA
:103FD800000E0001E26FE251040D000EF324D96EC9
:103FE800020EF420DA6EDE6ADE6ADE6ADD6A000E30
:103FF800186EE251040DF350640FA3EC2EF0000E7E
:10400800186E0001E251040DF350650FA3EC2EF079
:10401800000E186E0001E251040DF350660FA3EC78
:104028002EF0000E186E0001E251040DF350670FD8
:10403800A3EC2EF00001E22B1E0EE26526EF20F025
:1040480028EF20F0EFEF1FF0010EE46F010EBAEC3D
:1040580022F012008050380B0001B76FB739E846DC
:104068001F0BB76F080EB7613CEF20F03EEF20F052
:1040780048EF20F0070E186E7D0EE82EFED7182E9A
:10408800FCD700F04AEF20F0000EB76F8050380BD5
:104098000001B76FB739E8461F0BB76F080EB76155
:1040A80058EF20F05AEF20F0B9EF22F03DEF21F061
:1040B80080B661EF20F063EF20F076EF20F080A863
:1040C80068EF20F06AEF20F076EF20F080AA6FEF1B
:1040D80020F071EF20F076EF20F001016D4B6E2B90
:1040E80066EF21F0000E01016E6F000E6D6F66EF36
:1040F80021F080A682EF20F084EF20F097EF20F0E7
:1041080080B889EF20F08BEF20F097EF20F080AA9D
:1041180090EF20F092EF20F097EF20F001016B4B29
:104128006C2B66EF21F0000E01016C6F000E6B6FB7
:1041380066EF21F080B6A3EF20F0A5EF20F0B8EFEE
:1041480020F080B8AAEF20F0ACEF20F0B8EF20F014
:1041580080AAB1EF20F0B3EF20F0B8EF20F0010112
:10416800694B6A2B66EF21F0000E01016A6F000EA1
:10417800696F66EF21F080A6C4EF20F0C6EF20F04B
:10418800D9EF20F080A8CBEF20F0CDEF20F0D9EFC9
:1041980020F080BAD2EF20F0D4EF20F0D9EF20F051
:1041A8000101674B682B66EF21F0000E0101686F73
:1041B800000E676F66EF21F080B6E5EF20F0E7EFBD
:1041C80020F0F9EF20F080A8ECEF20F0EEEF20F0DF
:1041D800F9EF20F080BAF3EF20F0F5EF20F0F9EFD7
:1041E80020F0994B9A2B66EF21F0000E9A6F000E83
:1041F800996F66EF21F080A604EF21F006EF21F019
:1042080018EF21F080B80BEF21F00DEF21F018EF37
:1042180021F080BA12EF21F014EF21F018EF21F00D
:10422800974B982B66EF21F0000E986F000E976F52
:1042380066EF21F080B623EF21F025EF21F037EF6C
:1042480021F080B82AEF21F02CEF21F037EF21F090
:1042580080BA31EF21F033EF21F037EF21F0954BA1
:10426800962B66EF21F0000E966F000E956F66EFA5
:1042780021F0B751186E196A1950000AD8B447EFDF
:1042880021F066EF21F01850000AD8B41EEF21F093
:10429800010AD8B4FFEF20F0030AD8B4E0EF20F009
:1042A800010AD8B4BFEF20F0070AD8B49EEF20F077
:1042B800010AD8B47DEF20F0030AD8B45CEF20F0EF
:1042C80066EF21F001016EBF73EF21F06E5109E135
:1042D8000B0E6D5DD8A073EF21F075EF21F08DEF17
:1042E80021F06EBF81EF21F06E5109E1C90E6D5DBD
:1042F800D8A081EF21F083EF21F087EF21F0000EA5
:104308006E6F140E6D6F010E3C6E000E6E6F000E18
:104318006D6F6CBF99EF21F06C5109E10B0E6B5D6D
:10432800D8A099EF21F09BEF21F0B3EF21F06CBFFB
:10433800A7EF21F06C5109E1C90E6B5DD8A0A7EF7A
:1043480021F0A9EF21F0ADEF21F0000E6C6F140EF3
:104358006B6F020E3C6E000E6C6F000E6B6F6ABFC7
:10436800BFEF21F06A5109E10B0E695DD8A0BFEFDC
:1043780021F0C1EF21F0D9EF21F06ABFCDEF21F094
:104388006A5109E1C90E695DD8A0CDEF21F0CFEFE0
:1043980021F0D3EF21F0000E6A6F140E696F030E3F
:1043A8003C6E000E6A6F000E696F68BFE5EF21F082
:1043B800685109E10B0E675DD8A0E5EF21F0E7EF42
:1043C80021F0FFEF21F068BFF3EF21F0685109E118
:1043D800C90E675DD8A0F3EF21F0F5EF21F0F9EFF2
:1043E80021F0000E686F140E676F040E3C6E000E0D
:1043F800686F000E676F00019ABF0CEF22F09A51A8
:1044080009E1C90E995DD8A00CEF22F00EEF22F059
:1044180012EF22F0000E9A6F650E996F98BF1EEF8B
:1044280022F0985109E1C90E975DD8A01EEF22F03D
:1044380020EF22F024EF22F0000E986F650E976FA0
:1044480096BF30EF22F0965109E1C90E955DD8A0CC
:1044580030EF22F032EF22F036EF22F0000E966FA6
:10446800650E956F80A63BEF22F03DEF22F0B9EF85
:1044780022F080A842EF22F044EF22F0B9EF22F0B8
:1044880080AA49EF22F04BEF22F0B9EF22F09ABF51
:1044980057EF22F09A5109E10B0E995DD8A057EF1A
:1044A80022F059EF22F06FEF22F0050E3C6E9ABF12
:1044B80067EF22F09A5109E1650E995DD8A067EF80
:1044C80022F069EF22F06BEF22F0080E3C6E000E2E
:1044D8009A6F000E996F98BF7BEF22F0985109E10F
:1044E8000B0E975DD8A07BEF22F07DEF22F093EFC3
:1044F80022F0060E3C6E98BF8BEF22F0985109E12E
:10450800650E975DD8A08BEF22F08DEF22F08FEF2C
:1045180022F0090E3C6E000E986F000E976F96BF42
:104528009FEF22F0965109E10B0E955DD8A09FEF01
:1045380022F0A1EF22F0B9EF22F0070E3C6E96BFF1
:10454800AFEF22F0965109E1650E955DD8A0AFEF67
:1045580022F0B1EF22F0B3EF22F00A0E3C6E000E0B
:10456800966F000E956FB9EF22F012000001E86F08
:104578008CEC30F00001E851D8A4C5EF22F0C7EF69
:1045880022F0DCEF24F0E7EC2EF0DBC018F0D9C005
:1045980019F00001DD5134EC2CF040C118F041C194
:1045A80019F042C11AF043C11BF0100E1C6E0E0E1A
:1045B8001D6E000E1E6E000E1F6EBAEC2DF018C098
:1045C80024F019C025F01AC026F01BC027F03CC102
:1045D80018F03DC119F03EC11AF03FC11BF03C0E66
:1045E8001C6E000E1D6E000E1E6E000E1F6EBAECC5
:1045F8002DF018502424286E19502520296E1A50A1
:1046080026202A6E1B5027202B6E010138512824A2
:1046180000017B6F01013951292000017C6F0101E4
:104628003A512A2000017D6F01013B512B200001E6
:104638007E6F56EC2EF00F0E0001A115246E000EB1
:10464800A215256EA1C026F0A2C027F0040E286E80
:10465800D89027322632282E2CEF23F026C018F0C7
:1046680027C019F0000E1B6E0A0E1A6E79EC30F096
:10467800245018240101856F25501920866F0F0ECC
:104688000001A315246E000EA415256EA3C026F004
:10469800A4C027F0040E286ED89027322632282E80
:1046A80050EF23F026C018F027C019F0000E1B6E3B
:1046B8000A0E1A6E79EC30F0245018240101836F29
:1046C80025501920846F0F0E0001A515246E000EC9
:1046D800A615256EA5C026F0A6C027F0040E286EE4
:1046E800D89027322632282E74EF23F026C018F0EF
:1046F80027C019F0000E1B6E0A0E1A6E79EC30F006
:10470800245018240101816F25501920826F85C11A
:10471800A1F086C1A2F083C1A3F084C1A4F081C135
:10472800A5F082C1A6F09EEF24F0A1C03AF0A2C085
:104738003BF0DCEF24F01F0E0001A1253A6E000EBD
:10474800A2213B6EDCEF24F03B0E0001A1253A6E5E
:10475800000EA2213B6E030EA515246E000EA615B1
:10476800256E24502510D8A4BCEF23F0BEEF23F00B
:10477800DCEF24F0010E3A243A6E000E3B203B6E2B
:10478800DCEF24F05A0E0001A1253A6E000EA2219A
:104798003B6E030EA515246E000EA615256E24503B
:1047A8002510D8A4DAEF23F0DCEF23F0DCEF24F0B7
:1047B800BEEF23F0780E0001A1253A6E000EA2216B
:1047C8003B6E030EA515246E000EA615256E24500B
:1047D8002510D8A4F2EF23F0F4EF23F0DCEF24F057
:1047E800BEEF23F0970E0001A1253A6E000EA2211C
:1047F8003B6E030EA515246E000EA615256E2450DB
:104808002510D8A40AEF24F00CEF24F0DCEF24F0F4
:10481800BEEF23F0B50E0001A1253A6E000EA221CD
:104828003B6E030EA515246E000EA615256E2450AA
:104838002510D8A422EF24F024EF24F0DCEF24F094
:10484800BEEF23F0D40E0001A1253A6E000EA2217E
:104858003B6E030EA515246E000EA615256E24507A
:104868002510D8A43AEF24F03CEF24F0DCEF24F034
:10487800BEEF23F0F30E0001A1253A6E000EA2212F
:104888003B6E030EA515246E000EA615256E24504A
:104898002510D8A452EF24F054EF24F0DCEF24F0D4
:1048A800BEEF23F0110E0001A1253A6E010EA221E0
:1048B8003B6E030EA515246E000EA615256E24501A
:1048C8002510D8A46AEF24F06CEF24F0DCEF24F074
:1048D800BEEF23F0300E0001A1253A6E010EA22191
:1048E8003B6E030EA515246E000EA615256E2450EA
:1048F8002510D8A482EF24F084EF24F0DCEF24F014
:10490800BEEF23F04E0E0001A1253A6E010EA22142
:104918003B6E030EA515246E000EA615256E2450B9
:104928002510D8A49AEF24F09CEF24F0DCEF24F0B3
:10493800BEEF23F0A3C024F0A4C025F02550000A40
:10494800D8B4A9EF24F0DCEF24F02450010AD8B43D
:1049580099EF23F0030AD8B49FEF23F0010AD8B4E3
:10496800A8EF23F0070AD8B4C6EF23F0010AD8B499
:10497800DEEF23F0030AD8B4F6EF23F0010AD8B427
:104988000EEF24F00F0AD8B426EF24F0010AD8B4A9
:104998003EEF24F0030AD8B456EF24F0010AD8B445
:1049A8006EEF24F0070AD8B486EF24F0DCEF24F089
:1049B8000001E805D8A4E3EF24F0E5EF24F0F8EFD0
:1049C80024F0E451D8A4EBEF24F0EDEF24F0EFEF5E
:1049D80024F063EC30F0010E0001DF6F010EE06F90
:1049E800000EE16F4CEC30F012001E0E3D6E1E0EF4
:1049F8003D6E3D50D8A403EF25F005EF25F007EFF5
:104A080025F030EF25F03D500001E96FEA6BD890B2
:104A1800E937EA37D890E937EA37FC0EE925D96E45
:104A2800010EEA21DA6E3D50040D000EF324E16E0A
:104A3800020EF420E26EDECFE6FFDECFE6FFDECF29
:104A4800E6FFDECFE6FF3D063D50D8A42EEF25F069
:104A580030EF25F007EF25F0000E0201006F000E81
:104A6800016F000E026F000E036F000E3D6E1E0EEA
:104A78003D6441EF25F043EF25F045EF25F02BEF9E
:104A880026F03D50040D000EF324D96E020EF420DA
:104A9800DA6EDECF6BF0DECF6CF0DECF6DF0DECFFE
:104AA8006EF0000E0001926F000E916F92BF66EFDC
:104AB80025F0925109E1040E915DD8A066EF25F02A
:104AC80068EF25F06AEF25F098EF25F06BC018F035
:104AD8003D50040DF3509125640FC5EC2EF00D0EDA
:104AE8000001E96FFB0EE82EFED7E92FFCD700D0B6
:104AF8006BC0E9F06CC0EAF06DC0EBF06EC0ECF092
:104B0800EAC0E9F0EBC0EAF0ECC0EBF00001EC6BB6
:104B1800E9C06BF0EAC06CF0EBC06DF0ECC06EF071
:104B2800914B922B5AEF25F030C018F03D50040DF0
:104B3800F350670F34EC30F00001E96FE951306E43
:104B4800316A326A336A30C018F03D50040DF350B0
:104B5800660F34EC30F00001E96FE95130C0EBF03A
:104B680031C0ECF032C0EDF0EA6BEA25306E000E91
:104B7800EB21316E000EEC21326E000EED21336E0A
:104B880030C018F03D50040DF350650F34EC30F090
:104B98000001E96FE95130C0EBF031C0ECF032C0F0
:104BA800EDF0EA6BEA25306E000EEB21316E000E57
:104BB800EC21326E000EED21336E30C018F03D50FE
:104BC800040DF350640F34EC30F00001E96FE95143
:104BD80030C0EBF031C0ECF032C0EDF0EA6BEA2502
:104BE800306E000EEB21316E000EEC21326E000E9D
:104BF800ED21336E3D50040D000EF324D96E020EE4
:104C0800F420DA6EDECF6BF0DECF6CF0DECF6DF025
:104C1800DECF6EF03D50040D000EF324D96E020E67
:104C2800F420DA6E3050DE180DE13150DE180AE15A
:104C38003250DE1807E13350DE18D8A426EF26F0EC
:104C480028EF26F055EF25F03D2A3BEF25F0000E22
:104C5800BAEC22F0000E0001AF6F000EB36F000E29
:104C6800D66F000ED16F010EAE6F000EAD6F000E45
:104C780001015E6F000E5D6F000E7E6F000E7D6F8E
:104C8800000E506F000E516F000E526F000E536FE2
:104C98004504D8A452EF26F054EF26F057EF26F03B
:104CA800010E0001E66F3AC0A7F03BC0A8F0A7C00C
:104CB80018F0120EC5EC2EF00001A851A76FA86BD2
:104CC800A7C018F0130EC5EC2EF01200EDC018F0B6
:104CD800EEC019F0EFC01AF0F0C01BF0640E1C6EA5
:104CE800000E1D6E000E1E6E000E1F6EBAEC2DF02B
:104CF80018C0F3F019C0F4F01AC0F5F01BC0F6F0B4
:104D08000001F151186E196A1A6A1B6AF3C01CF087
:104D1800F4C01DF0F5C01EF0F6C01FF0BAEC2DF07F
:104D280002010051185C0101246F02010151195858
:104D38000101256F020102511A580101266F020173
:104D480003511B580101276F24C124F025C125F008
:104D580026C126F027C127F00001F251286E296AE2
:104D68002A6A2B6AE9EC2CF024C020F125C021F135
:104D780026C022F127C023F1020E01010425186E76
:104D8800000E0521196E000E06211A6E000E07216D
:104D98001B6E20C11CF021C11DF022C11EF023C1D1
:104DA8001FF0BAEC2DF018500101145D146F195062
:104DB8001559156F1A501659166F1B501759176F3A
:104DC80017510DE1860E145D510E1559010E165935
:104DD800D8A0F1EF26F0F3EF26F0FBEF26F0010E56
:104DE800146F000E156F000E166F000E176F14C1AA
:104DF80024F015C125F016C126F017C127F020C1EF
:104E080028F021C129F022C12AF023C12BF0E9ECB6
:104E18002CF024C01CF125C01DF126C01EF127C0AE
:104E28001FF101011F511E111D1107E1020E1C5D2A
:104E3800D8B021EF27F023EF27F02BEF27F0020E51
:104E48001C6F000E1D6F000E1E6F000E1F6FEDC051
:104E580018F0EEC019F0EFC01AF0F0C01BF0640EA5
:104E68001C6E000E1D6E000E1E6E000E1F6EBAEC3C
:104E78002DF018C0F3F019C0F4F01AC0F5F01BC0FB
:104E8800F6F00001F151186E196A1A6A1B6AF3C02C
:104E98001CF0F4C01DF0F5C01EF0F6C01FF0BAEC0F
:104EA8002DF018C024F019C025F01AC026F01BC038
:104EB80027F00001F251286E296A2A6A2B6AE9EC68
:104EC8002CF024C091F125C092F126C093F127C09F
:104ED80094F1800E246E510E256E010E266E000E82
:104EE800276E91C128F092C129F093C12AF094C18C
:104EF8002BF0E9EC2CF024C000F125C001F126C00C
:104F080002F127C003F11200010E0001E76FA9C0EA
:104F1800E9F0AAC0EAF0D890EA33E933D890EA3346
:104F2800E933E9C079F1EAC07AF101017951030B5B
:104F38000001D46F79C17BF17AC17CF1EAEF27F0E7
:104F4800210E816E140E0001E96F790EE82EFED74E
:104F5800E92FFCD700D0090E816E140E0001E96F0D
:104F6800790EE82EFED7E92FFCD700D0180E816EF7
:104F7800140E0001E96F790EE82EFED7E92FFCD751
:104F880000D0300E816E140E0001E96F790EE82E04
:104F9800FED7E92FFCD700D07BC118F07CC119F0EF
:104FA800000E1B6E030E1A6E91EC2CF0185019109F
:104FB800D8A4E1EF27F0E3EF27F0E6EF27F0000EA3
:104FC800BAEC22F001017B07D8A07C0701017CBF65
:104FD800F8EF27F07C5106E17B05D8B0F6EF27F013
:104FE800F8EF27F0A4EF27F039EF28F0210E816EB3
:104FF800140E0001E96F790EE82EFED7E92FFCD7D1
:1050080000D053EF28F0210E816E140E0001E96FD5
:10501800790EE82EFED7E92FFCD700D0090E816E55
:10502800140E0001E96F790EE82EFED7E92FFCD7A0
:1050380000D053EF28F0210E816E140E0001E96FA5
:10504800790EE82EFED7E92FFCD700D0090E816E25
:10505800140E0001E96F790EE82EFED7E92FFCD770
:1050680000D0180E816EFCEF27F00001D451E96FD3
:10507800EA6BEA51000AD8B444EF28F053EF28F05D
:10508800E951010AD8B4FAEF27F0030AD8B407EFB8
:1050980028F0010AD8B41FEF28F053EF28F0815008
:1050A800C60B816E000E0001D76F010ED66F000E81
:1050B800D56F000EBAEC22F07BC07FF07CC080F088
:1050C8007DC081F07EC082F07FC04CF180C04DF180
:1050D80081C04EF182C04FF10001E5510201002567
:1050E800006F000E0121016F000E0221026F000EF9
:1050F8000321036F000E0001E76F000E01017E6FB0
:10510800000E7D6F000E506F000E516F000E526F33
:10511800000E536F1200EDC024F0EEC025F0EFC072
:1051280026F0F0C027F0100E286E270E296E000E0C
:105138002A6E000E2B6EE9EC2CF024500001C66F8D
:10514800100E1C6E270E1D6E000E1E6E000E1F6EBA
:10515800EDC018F0EEC019F0EFC01AF0F0C01BF067
:105168003CEC2DF018C024F019C025F01AC026F028
:105178001BC027F0E80E286E030E296E000E2A6E5B
:10518800000E2B6EE9EC2CF024500001C56FE80EE0
:105198001C6E030E1D6E000E1E6E000E1F6EEDC0FF
:1051A80018F0EEC019F0EFC01AF0F0C01BF03CEC9C
:1051B8002DF018C024F019C025F01AC026F01BC025
:1051C80027F0640E286E000E296E000E2A6E000E5F
:1051D8002B6EE9EC2CF024500001C46F640E1C6E99
:1051E800000E1D6E000E1E6E000E1F6EEDC018F034
:1051F800EEC019F0EFC01AF0F0C01BF03CEC2DF037
:1052080018C024F019C025F01AC026F01BC027F0DA
:105218000A0E286E000E296E000E2A6E000E2B6EE6
:10522800E9EC2CF024500001C36FEDC018F0EEC07B
:1052380019F0EFC01AF0F0C01BF00A0E1C6E000E39
:105248001D6E000E1E6E000E1F6E3CEC2DF01850E9
:105258000001C26FC651D8A434EF29F036EF29F007
:105268004FEF29F0C55167EC29F00001666F6651D0
:10527800800F666FC45167EC29F00001676FC35156
:1052880067EC29F00001686FC25167EC29F0000152
:10529800696F66EF29F0C65167EC29F00001666F67
:1052A800C55167EC29F00001676F6751800F676F80
:1052B800C45167EC29F00001686FC35167EC29F00D
:1052C8000001696F12001A6ECEEF29F0C00E0001BE
:1052D800C16F2BEF2AF0F90E0001C16F2BEF2AF0F6
:1052E800A40E0001C16F2BEF2AF0B00E0001C16FB0
:1052F8002BEF2AF0990E0001C16F2BEF2AF0920EC6
:105308000001C16F2BEF2AF0820E0001C16F2BEF55
:105318002AF0F80E0001C16F2BEF2AF0800E000171
:10532800C16F2BEF2AF0900E0001C16F2BEF2AF00E
:10533800090E0001C16F2BEF2AF0CF0E0001C16FDB
:105348002BEF2AF01A0E0001C16F2BEF2AF00E0E78
:105358000001C16F2BEF2AF0CC0E0001C16F2BEFBB
:105368002AF02C0E0001C16F2BEF2AF0280E000145
:10537800C16F2BEF2AF08F0E0001C16F2BEF2AF0BF
:10538800080E0001C16F2BEF2AF00C0E0001C16F4F
:105398002BEF2AF01A50186E196A1950000AD8B45F
:1053A800D8EF29F02BEF2AF01850000AD8B46AEF8A
:1053B80029F0010AD8B46FEF29F0030AD8B474EFC2
:1053C80029F0010AD8B479EF29F0070AD8B47EEF9A
:1053D80029F0010AD8B483EF29F0030AD8B488EF7A
:1053E80029F0010AD8B48DEF29F00F0AD8B492EF4A
:1053F80029F0010AD8B497EF29F0030AD8B49CEF32
:1054080029F0010AD8B4A1EF29F0070AD8B4A6EF09
:1054180029F0010AD8B4ABEF29F0030AD8B4B0EFE9
:1054280029F0010AD8B4B5EF29F01F0AD8B4BAEFA9
:1054380029F0010AD8B4BFEF29F0030AD8B4C4EFA1
:1054480029F0010AD8B4C9EF29F02BEF2AF000019E
:10545800C151120018C01AF019C01BF0D8901B32A5
:105468001A32D8901B321A321AC071F11BC072F16D
:10547800030E181401016F6F706B71C11CF072C1BB
:105488001DF01C501D10D8A44CEF2AF04EEF2AF046
:1054980050EF2AF07DEF2AF0210E816E1A0E1A6E57
:1054A800F80EE82EFED71A2EFCD700D0090E816E12
:1054B8001A0E1A6EF80EE82EFED71A2EFCD700D058
:1054C800180E816E1A0E1A6EF80EE82EFED71A2ED6
:1054D800FCD700D0300E816E1A0E1A6EF80EE82E28
:1054E800FED71A2EFCD700D01C06D8A01D0645EF03
:1054F8002AF0B9EF2AF0110E816E1A0E1A6EF80E04
:10550800E82EFED71A2EFCD700D0D3EF2AF0110EC2
:10551800816E1A0E1A6EF80EE82EFED71A2EFCD7D8
:1055280000D0210E816E1A0E1A6EF80EE82EFED7E4
:105538001A2EFCD700D0D3EF2AF0110E816E1A0E66
:105548001A6EF80EE82EFED71A2EFCD700D0210EC0
:10555800816E1A0E1A6EF80EE82EFED71A2EFCD798
:1055680000D0280E816E81EF2AF06FC11AF070C149
:105578001BF01B50000AD8B4C4EF2AF0D3EF2AF06E
:105588001A50010AD8B47FEF2AF0030AD8B48BEF77
:105598002AF0010AD8B4A1EF2AF0D3EF2AF08150FB
:1055A800C60B816E120087C018F088C019F089C038
:1055B8001AF08AC01BF0100E1C6E0E0E1D6E000E27
:1055C8001E6E000E1F6EBAEC2DF018C024F019C024
:1055D80025F01AC026F01BC027F083C018F084C03D
:1055E80019F085C01AF086C01BF03C0E1C6E000E28
:1055F8001D6E000E1E6E000E1F6EBAEC2DF01850B8
:10560800242400016F6F19502520706F1A5026202E
:10561800716F1B502720726F7B516F5D7C517059E1
:105628007D5171597E517259D8B01DEF2BF01FEF83
:105638002BF03BEF2BF07B516F5D246E7C51705942
:10564800256E7D517159266E7E517259276E800ED6
:1056580024240101146F510E2520156F010E2620F8
:10566800166F000E2720176F000E0001AE6F6F51E6
:105678007B5D70517C5971517D5972517E59D8B0FA
:1056880048EF2BF04AEF2BF05DEF2BF07B516F5D6D
:105698000101146F00017C5170590101156F00015F
:1056A8007D5171590101166F00017E517259010136
:1056B800176F1200236E23C018F0196A000E1B6EB4
:1056C8000A0E1A6ED2EC2BF018500001C66F23C0D8
:1056D80018F0196A000E1B6E0A0E1A6E91EC2CF067
:1056E80018500001C56F070E20607DEF2BF07FEF8B
:1056F8002BF082EF2BF0C6510A0FC66F070E216000
:1057080088EF2BF08AEF2BF08DEF2BF0C5510A0FA5
:10571800C56F600E2024D96EDA6A000EDA22C651EF
:1057280067EC29F0DF6E600E2124D96EDA6A000E6C
:10573800DA220001C55167EC29F0DF6E2204D8A4F3
:10574800A8EF2BF0AAEF2BF0B9EF2BF0600E202476
:10575800D96EDA6A000EDA22600E2024E16EE26A5F
:10576800000EE222E750F70BDF6E020E2218D8A4D3
:10577800C0EF2BF0C2EF2BF0D1EF2BF0600E2124FD
:10578800D96EDA6A000EDA22600E2124E16EE26A2E
:10579800000EE222E750F70BDF6E1200000E1D6EBE
:1057A8001BBEDBEF2BF0D9EF2BF0E1EF2BF01A6CDF
:1057B8001B1ED8B01B2A010E1D6E19BEE8EF2BF078
:1057C800E6EF2BF0EEEF2BF0186C191ED8B0192A63
:1057D800010E1D1A000E1F6E000E1E6E1A501B10B1
:1057E800D8B4F9EF2BF0FBEF2BF023EF2CF0010EE0
:1057F8001C6E03EF2CF0D8901A361B361C2A1BAEF1
:1058080008EF2CF00AEF2CF0FFEF2BF0D8901E36A3
:105818001F361A50185C1B501958D8A016EF2CF0D8
:1058280018EF2CF01DEF2CF01A50185E1B50195A67
:105838001E80D8901B321A321C2E0AEF2CF01D50F5
:10584800D8B429EF2CF02BEF2CF02FEF2CF01E6C96
:105858001F1ED8B01F2A1EC018F01FC019F0120052
:105868001E6E1EC01AF01A3A0F0E1A16030E1A16DA
:105878001A500A0DF3CF1BF0F4CF1CF01EC01DF018
:105888000F0E1D161D501B26000E1C221BC040F1BA
:105898001CC041F10101000E41BFFF0E426F436F72
:1058A80018C01AF01A3A0F0E1A160F0E1A161A50B6
:1058B8000A0DF3CF1BF0F4CF1CF018C01DF00F0E2B
:1058C8001D161D501B26000E1C221BC03CF11CC0BF
:1058D8003DF1000E3DBFFF0E3E6F3F6F19C01AF03D
:1058E8001A3A0F0E1A160F0E1A161A500A0DF3CF7F
:1058F8001BF0F4CF1CF019C01DF00F0E1D161D5023
:105908001B26000E1C221BC038F11CC039F1000EEA
:1059180039BFFF0E3A6F3B6F1200000E1D6E19BEA5
:105928009AEF2CF098EF2CF0A0EF2CF0186C191EC1
:10593800D8B0192A010E1D6E1BBEA7EF2CF0A5EFDB
:105948002CF0ABEF2CF01A6C1B1ED8B01B2A1A5087
:105958001B10D8B4B2EF2CF0B4EF2CF0D8EF2CF029
:10596800010E1C6EBCEF2CF0D8901A361B361C2A80
:105978001BAEC1EF2CF0C3EF2CF0B8EF2CF01A508F
:10598800185C1B501958D8A0CCEF2CF0CEEF2CF097
:10599800D2EF2CF01A50185E1B50195AD8901B32AF
:1059A8001A321C2EC3EF2CF01D50D8B4DEEF2CF0A9
:1059B800E0EF2CF0E4EF2CF0186C191ED8B0192A7F
:1059C80018C018F019C019F01200000E0001E86F95
:1059D800000EE96F000EEA6F000EEB6F28502910D9
:1059E8002A102B10D8B4FBEF2CF0FDEF2CF033EF7E
:1059F8002DF0010EEC6F07EF2DF0D89028362936E0
:105A08002A362B36EC2B2BAE0CEF2DF00EEF2DF0AB
:105A180001EF2DF0D890E837E937EA37EB3728500F
:105A2800245C295025582A5026582B502758D8A08E
:105A380020EF2DF022EF2DF02BEF2DF02850245ED3
:105A48002950255A2A50265A2B50275AE881D8908F
:105A58002B322A3229322832EC2F0EEF2DF0E8C0F3
:105A680024F0E9C025F0EAC026F0EBC027F01200C8
:105A78001C501D101E101F10D8B445EF2DF047EF15
:105A88002DF077EF2DF0010E206E51EF2DF0D8900C
:105A98001C361D361E361F36202A1FAE56EF2DF037
:105AA80058EF2DF04BEF2DF01C50185C1D50195875
:105AB8001E501A581F501B58D8A065EF2DF067EFDD
:105AC8002DF06FEF2DF01C50185E1D50195A1E5006
:105AD8001A5A1F501B5AD8901F321E321D321C32C0
:105AE800202E58EF2DF018C018F019C019F01AC060
